{
  "_format": "hh-sol-artifact-1",
  "contractName": "JobPortal",
  "sourceName": "contracts/JobPortal.sol",
  "abi": [
    {
      "anonymous": false,
      "inputs": [
        {
          "indexed": false,
          "internalType": "uint256",
          "name": "projectId",
          "type": "uint256"
        },
        {
          "indexed": false,
          "internalType": "address",
          "name": "projectManager",
          "type": "address"
        },
        {
          "indexed": false,
          "internalType": "string",
          "name": "projectURI",
          "type": "string"
        }
      ],
      "name": "NewProject",
      "type": "event"
    },
    {
      "anonymous": false,
      "inputs": [
        {
          "indexed": false,
          "internalType": "uint256",
          "name": "projectId",
          "type": "uint256"
        },
        {
          "indexed": false,
          "internalType": "uint256",
          "name": "taskId",
          "type": "uint256"
        },
        {
          "indexed": false,
          "internalType": "address",
          "name": "freelancer",
          "type": "address"
        },
        {
          "indexed": false,
          "internalType": "uint256",
          "name": "bidAmount",
          "type": "uint256"
        },
        {
          "indexed": false,
          "internalType": "string",
          "name": "proposalURI",
          "type": "string"
        }
      ],
      "name": "NewProposal",
      "type": "event"
    },
    {
      "anonymous": false,
      "inputs": [
        {
          "indexed": false,
          "internalType": "uint256",
          "name": "projectId",
          "type": "uint256"
        },
        {
          "indexed": false,
          "internalType": "uint256",
          "name": "taskId",
          "type": "uint256"
        },
        {
          "indexed": false,
          "internalType": "uint256",
          "name": "stakedAmount",
          "type": "uint256"
        },
        {
          "indexed": false,
          "internalType": "string",
          "name": "taskURI",
          "type": "string"
        }
      ],
      "name": "NewTask",
      "type": "event"
    },
    {
      "anonymous": false,
      "inputs": [
        {
          "indexed": false,
          "internalType": "uint256",
          "name": "projectId",
          "type": "uint256"
        },
        {
          "indexed": false,
          "internalType": "uint256",
          "name": "taskId",
          "type": "uint256"
        },
        {
          "indexed": false,
          "internalType": "address",
          "name": "worker",
          "type": "address"
        },
        {
          "indexed": false,
          "internalType": "uint256",
          "name": "amount",
          "type": "uint256"
        }
      ],
      "name": "PaymentReleased",
      "type": "event"
    },
    {
      "anonymous": false,
      "inputs": [
        {
          "indexed": false,
          "internalType": "uint256",
          "name": "projectId",
          "type": "uint256"
        },
        {
          "indexed": false,
          "internalType": "uint256",
          "name": "taskId",
          "type": "uint256"
        }
      ],
      "name": "ReviewCompleted",
      "type": "event"
    },
    {
      "anonymous": false,
      "inputs": [
        {
          "indexed": false,
          "internalType": "uint256",
          "name": "projectId",
          "type": "uint256"
        },
        {
          "indexed": false,
          "internalType": "uint256",
          "name": "taskId",
          "type": "uint256"
        }
      ],
      "name": "TaskCompleted",
      "type": "event"
    },
    {
      "anonymous": false,
      "inputs": [
        {
          "indexed": false,
          "internalType": "uint256",
          "name": "projectId",
          "type": "uint256"
        },
        {
          "indexed": false,
          "internalType": "uint256",
          "name": "taskId",
          "type": "uint256"
        },
        {
          "indexed": false,
          "internalType": "address",
          "name": "worker",
          "type": "address"
        }
      ],
      "name": "WorkerSelected",
      "type": "event"
    },
    {
      "inputs": [
        {
          "internalType": "uint256",
          "name": "projectId",
          "type": "uint256"
        },
        {
          "internalType": "uint256",
          "name": "taskId",
          "type": "uint256"
        }
      ],
      "name": "completeTaskWorker",
      "outputs": [],
      "stateMutability": "nonpayable",
      "type": "function"
    },
    {
      "inputs": [
        {
          "internalType": "string",
          "name": "projectURI",
          "type": "string"
        }
      ],
      "name": "createProject",
      "outputs": [],
      "stateMutability": "nonpayable",
      "type": "function"
    },
    {
      "inputs": [
        {
          "internalType": "uint256",
          "name": "projectId",
          "type": "uint256"
        },
        {
          "internalType": "uint256",
          "name": "stakedAmount",
          "type": "uint256"
        },
        {
          "internalType": "string",
          "name": "taskURI",
          "type": "string"
        }
      ],
      "name": "createTask",
      "outputs": [],
      "stateMutability": "payable",
      "type": "function"
    },
    {
      "inputs": [],
      "name": "getBalance",
      "outputs": [
        {
          "internalType": "uint256",
          "name": "",
          "type": "uint256"
        }
      ],
      "stateMutability": "view",
      "type": "function"
    },
    {
      "inputs": [],
      "name": "getCurrentProjectId",
      "outputs": [
        {
          "internalType": "uint256",
          "name": "",
          "type": "uint256"
        }
      ],
      "stateMutability": "view",
      "type": "function"
    },
    {
      "inputs": [
        {
          "internalType": "uint256",
          "name": "projectId",
          "type": "uint256"
        },
        {
          "internalType": "uint256",
          "name": "taskId",
          "type": "uint256"
        }
      ],
      "name": "getProposalsByTaskId",
      "outputs": [
        {
          "components": [
            {
              "internalType": "string",
              "name": "proposalURI",
              "type": "string"
            },
            {
              "internalType": "address",
              "name": "freelancer",
              "type": "address"
            },
            {
              "internalType": "uint256",
              "name": "bidAmount",
              "type": "uint256"
            },
            {
              "internalType": "string",
              "name": "motivation",
              "type": "string"
            }
          ],
          "internalType": "struct JobPortal.Proposal[]",
          "name": "",
          "type": "tuple[]"
        }
      ],
      "stateMutability": "view",
      "type": "function"
    },
    {
      "inputs": [
        {
          "internalType": "uint256",
          "name": "projectId",
          "type": "uint256"
        }
      ],
      "name": "getTaskCountByProjectId",
      "outputs": [
        {
          "internalType": "uint256",
          "name": "",
          "type": "uint256"
        }
      ],
      "stateMutability": "view",
      "type": "function"
    },
    {
      "inputs": [
        {
          "internalType": "uint256",
          "name": "projectId",
          "type": "uint256"
        },
        {
          "internalType": "uint256",
          "name": "taskId",
          "type": "uint256"
        }
      ],
      "name": "getTaskData",
      "outputs": [
        {
          "internalType": "string",
          "name": "taskURI",
          "type": "string"
        },
        {
          "internalType": "uint256",
          "name": "Id",
          "type": "uint256"
        },
        {
          "internalType": "uint256",
          "name": "stakedAmount",
          "type": "uint256"
        },
        {
          "internalType": "uint256",
          "name": "proposalCount",
          "type": "uint256"
        },
        {
          "internalType": "address",
          "name": "worker",
          "type": "address"
        },
        {
          "internalType": "bool",
          "name": "isComplete",
          "type": "bool"
        },
        {
          "internalType": "bool",
          "name": "isReviewed",
          "type": "bool"
        }
      ],
      "stateMutability": "view",
      "type": "function"
    },
    {
      "inputs": [
        {
          "internalType": "uint256",
          "name": "projectId",
          "type": "uint256"
        },
        {
          "internalType": "uint256",
          "name": "taskId",
          "type": "uint256"
        }
      ],
      "name": "increaseStakedAmount",
      "outputs": [],
      "stateMutability": "payable",
      "type": "function"
    },
    {
      "inputs": [
        {
          "internalType": "address",
          "name": "",
          "type": "address"
        }
      ],
      "name": "person",
      "outputs": [
        {
          "internalType": "string",
          "name": "personURI",
          "type": "string"
        },
        {
          "internalType": "uint256",
          "name": "id",
          "type": "uint256"
        },
        {
          "internalType": "string",
          "name": "name",
          "type": "string"
        },
        {
          "internalType": "string",
          "name": "wallet_address",
          "type": "string"
        },
        {
          "internalType": "string",
          "name": "description",
          "type": "string"
        },
        {
          "internalType": "uint256",
          "name": "rating",
          "type": "uint256"
        },
        {
          "internalType": "uint256",
          "name": "total_projects",
          "type": "uint256"
        },
        {
          "internalType": "uint256",
          "name": "total_tasks",
          "type": "uint256"
        }
      ],
      "stateMutability": "view",
      "type": "function"
    },
    {
      "inputs": [],
      "name": "projectCount",
      "outputs": [
        {
          "internalType": "uint256",
          "name": "",
          "type": "uint256"
        }
      ],
      "stateMutability": "view",
      "type": "function"
    },
    {
      "inputs": [
        {
          "internalType": "uint256",
          "name": "",
          "type": "uint256"
        }
      ],
      "name": "projects",
      "outputs": [
        {
          "internalType": "string",
          "name": "projectURI",
          "type": "string"
        },
        {
          "internalType": "uint256",
          "name": "projectId",
          "type": "uint256"
        },
        {
          "internalType": "address",
          "name": "projectManager",
          "type": "address"
        },
        {
          "internalType": "uint256",
          "name": "taskCount",
          "type": "uint256"
        }
      ],
      "stateMutability": "view",
      "type": "function"
    },
    {
      "inputs": [
        {
          "internalType": "uint256",
          "name": "projectId",
          "type": "uint256"
        },
        {
          "internalType": "uint256",
          "name": "taskId",
          "type": "uint256"
        }
      ],
      "name": "refundStakedAmount",
      "outputs": [],
      "stateMutability": "nonpayable",
      "type": "function"
    },
    {
      "inputs": [
        {
          "internalType": "uint256",
          "name": "projectId",
          "type": "uint256"
        },
        {
          "internalType": "uint256",
          "name": "taskId",
          "type": "uint256"
        }
      ],
      "name": "releasePayment",
      "outputs": [],
      "stateMutability": "payable",
      "type": "function"
    },
    {
      "inputs": [
        {
          "internalType": "uint256",
          "name": "projectId",
          "type": "uint256"
        },
        {
          "internalType": "uint256",
          "name": "taskId",
          "type": "uint256"
        }
      ],
      "name": "reviewTask",
      "outputs": [],
      "stateMutability": "nonpayable",
      "type": "function"
    },
    {
      "inputs": [
        {
          "internalType": "uint256",
          "name": "projectId",
          "type": "uint256"
        },
        {
          "internalType": "uint256",
          "name": "taskId",
          "type": "uint256"
        },
        {
          "internalType": "address",
          "name": "worker",
          "type": "address"
        }
      ],
      "name": "selectWorker",
      "outputs": [],
      "stateMutability": "nonpayable",
      "type": "function"
    },
    {
      "inputs": [
        {
          "internalType": "uint256",
          "name": "projectId",
          "type": "uint256"
        },
        {
          "internalType": "uint256",
          "name": "taskId",
          "type": "uint256"
        },
        {
          "internalType": "uint256",
          "name": "bidAmount",
          "type": "uint256"
        },
        {
          "internalType": "string",
          "name": "motivation",
          "type": "string"
        },
        {
          "internalType": "string",
          "name": "proposalURI",
          "type": "string"
        }
      ],
      "name": "sendProposal",
      "outputs": [],
      "stateMutability": "nonpayable",
      "type": "function"
    },
    {
      "stateMutability": "payable",
      "type": "receive"
    }
  ],
  "bytecode": "0x608060405234801561001057600080fd5b50613208806100206000396000f3fe6080604052600436106101025760003560e01c806392adc43811610095578063ce42fc0811610064578063ce42fc0814610339578063ce6b466014610362578063e2d7baac1461038b578063e76239d8146103c8578063f7e5c81e146103f157610109565b806392adc4381461029257806397e99a80146102ae578063b7e4b265146102ca578063c868ba9a1461030e57610109565b806336fbad26116100d157806336fbad26146101df578063446e707d1461020a5780636708c2401461023357806382b350171461027657610109565b8063107046bd1461010e57806312065fe01461014e57806315ee4df1146101795780632463efca146101a257610109565b3661010957005b600080fd5b34801561011a57600080fd5b5061013560048036038101906101309190611d0e565b61041a565b6040516101459493929190611e1b565b60405180910390f35b34801561015a57600080fd5b506101636104f2565b6040516101709190611e67565b60405180910390f35b34801561018557600080fd5b506101a0600480360381019061019b9190611ee7565b6104fa565b005b3480156101ae57600080fd5b506101c960048036038101906101c49190611d0e565b610618565b6040516101d69190611e67565b60405180910390f35b3480156101eb57600080fd5b506101f4610637565b6040516102019190611e67565b60405180910390f35b34801561021657600080fd5b50610231600480360381019061022c9190612064565b61063d565b005b34801561023f57600080fd5b5061025a6004803603810190610255919061211a565b610908565b60405161026d9796959493929190612175565b60405180910390f35b610290600480360381019061028b91906121eb565b610a40565b005b6102ac60048036038101906102a7919061211a565b610dbb565b005b6102c860048036038101906102c3919061211a565b610fc9565b005b3480156102d657600080fd5b506102f160048036038101906102ec919061228b565b611242565b6040516103059897969594939291906122b8565b60405180910390f35b34801561031a57600080fd5b506103236114aa565b6040516103309190611e67565b60405180910390f35b34801561034557600080fd5b50610360600480360381019061035b919061211a565b6114bf565b005b34801561036e57600080fd5b5061038960048036038101906103849190612352565b6115f5565b005b34801561039757600080fd5b506103b260048036038101906103ad919061211a565b611714565b6040516103bf9190612539565b60405180910390f35b3480156103d457600080fd5b506103ef60048036038101906103ea919061211a565b6119d0565b005b3480156103fd57600080fd5b506104186004803603810190610413919061211a565b611aee565b005b600060205280600052604060002060009150905080600001805461043d9061258a565b80601f01602080910402602001604051908101604052809291908181526020018280546104699061258a565b80156104b65780601f1061048b576101008083540402835291602001916104b6565b820191906000526020600020905b81548152906001019060200180831161049957829003601f168201915b5050505050908060010154908060020160009054906101000a900473ffffffffffffffffffffffffffffffffffffffff16908060040154905084565b600047905090565b818160008060015481526020019081526020016000206000019182610520929190612772565b5060015460008060015481526020019081526020016000206001018190555033600080600154815260200190815260200160002060020160006101000a81548173ffffffffffffffffffffffffffffffffffffffff021916908373ffffffffffffffffffffffffffffffffffffffff1602179055506000806000600154815260200190815260200160002060040181905550600160008154809291906105c590612871565b91905055507fa974b2210ac17a1d9eb51946f0b5c8d97439a13bcb145bb58d3329f7d6da7e87600180546105f991906128b9565b33848460405161060c949392919061291a565b60405180910390a15050565b6000806000838152602001908152602001600020600401549050919050565b60015481565b600080600088815260200190815260200160002060030160008781526020019081526020016000206005015490506000806000898152602001908152602001600020600301600088815260200190815260200160002060040160009054906101000a900473ffffffffffffffffffffffffffffffffffffffff169050600073ffffffffffffffffffffffffffffffffffffffff168173ffffffffffffffffffffffffffffffffffffffff1614610728576040517f08c379a000000000000000000000000000000000000000000000000000000000815260040161071f906129cc565b60405180910390fd5b83836000808b815260200190815260200160002060030160008a815260200190815260200160002060030160008581526020019081526020016000206000019182610774929190612772565b50336000808a81526020019081526020016000206003016000898152602001908152602001600020600301600084815260200190815260200160002060010160006101000a81548173ffffffffffffffffffffffffffffffffffffffff021916908373ffffffffffffffffffffffffffffffffffffffff160217905550856000808a81526020019081526020016000206003016000898152602001908152602001600020600301600084815260200190815260200160002060020181905550846000808a815260200190815260200160002060030160008981526020019081526020016000206003016000848152602001908152602001600020600301908161087d91906129ec565b50600080898152602001908152602001600020600301600088815260200190815260200160002060050160008154809291906108b890612871565b91905055507fda8e8a297b528369f68e2eb3ddff4213030c5d6e4af89b322a137129e7769bd08888338988886040516108f696959493929190612abe565b60405180910390a15050505050505050565b606060008060008060008060008060008b815260200190815260200160002060030160008a81526020019081526020016000209050806000018160010154826002015483600501548460040160009054906101000a900473ffffffffffffffffffffffffffffffffffffffff168560060160009054906101000a900460ff168660060160019054906101000a900460ff168680546109a59061258a565b80601f01602080910402602001604051908101604052809291908181526020018280546109d19061258a565b8015610a1e5780601f106109f357610100808354040283529160200191610a1e565b820191906000526020600020905b815481529060010190602001808311610a0157829003601f168201915b5050505050965097509750975097509750975097505092959891949750929550565b60008085815260200190815260200160002060020160009054906101000a900473ffffffffffffffffffffffffffffffffffffffff1673ffffffffffffffffffffffffffffffffffffffff163373ffffffffffffffffffffffffffffffffffffffff1614610ae3576040517f08c379a0000000000000000000000000000000000000000000000000000000008152600401610ada90612b8c565b60405180910390fd5b818160008087815260200190815260200160002060030160008060008981526020019081526020016000206004015481526020019081526020016000206000019182610b30929190612772565b5060008085815260200190815260200160002060040154600080868152602001908152602001600020600301600080600088815260200190815260200160002060040154815260200190815260200160002060010181905550826000808681526020019081526020016000206003016000806000888152602001908152602001600020600401548152602001908152602001600020600201819055506000806000868152602001908152602001600020600301600080600088815260200190815260200160002060040154815260200190815260200160002060060160006101000a81548160ff0219169083151502179055506000806000868152602001908152602001600020600301600080600088815260200190815260200160002060040154815260200190815260200160002060060160016101000a81548160ff0219169083151502179055506000808581526020019081526020016000206004016000815480929190610ca090612871565b91905055506000803073ffffffffffffffffffffffffffffffffffffffff1634604051610ccc90612bdd565b60006040518083038185875af1925050503d8060008114610d09576040519150601f19603f3d011682016040523d82523d6000602084013e610d0e565b606091505b509150915081610d53576040517f08c379a0000000000000000000000000000000000000000000000000000000008152600401610d4a90612c3e565b60405180910390fd5b7f6ad35e82867f5346b4cd8cbbe887194073ed7847826f00f643f312e0263aec2a8660016000808a815260200190815260200160002060040154610d9791906128b9565b878787604051610dab959493929190612c5e565b60405180910390a1505050505050565b60008083815260200190815260200160002060020160009054906101000a900473ffffffffffffffffffffffffffffffffffffffff1673ffffffffffffffffffffffffffffffffffffffff163373ffffffffffffffffffffffffffffffffffffffff1614610e5e576040517f08c379a0000000000000000000000000000000000000000000000000000000008152600401610e5590612d1e565b60405180910390fd5b600080838152602001908152602001600020600301600082815260200190815260200160002060060160009054906101000a900460ff1615610ed5576040517f08c379a0000000000000000000000000000000000000000000000000000000008152600401610ecc90612d8a565b60405180910390fd5b3460008084815260200190815260200160002060030160008381526020019081526020016000206002016000828254610f0e9190612daa565b925050819055506000803073ffffffffffffffffffffffffffffffffffffffff1634604051610f3c90612bdd565b60006040518083038185875af1925050503d8060008114610f79576040519150601f19603f3d011682016040523d82523d6000602084013e610f7e565b606091505b509150915081610fc3576040517f08c379a0000000000000000000000000000000000000000000000000000000008152600401610fba90612c3e565b60405180910390fd5b50505050565b60008083815260200190815260200160002060020160009054906101000a900473ffffffffffffffffffffffffffffffffffffffff1673ffffffffffffffffffffffffffffffffffffffff163373ffffffffffffffffffffffffffffffffffffffff161461106c576040517f08c379a000000000000000000000000000000000000000000000000000000000815260040161106390612e50565b60405180910390fd5b600080838152602001908152602001600020600301600082815260200190815260200160002060060160019054906101000a900460ff166110e2576040517f08c379a00000000000000000000000000000000000000000000000000000000081526004016110d990612ebc565b60405180910390fd5b600080600084815260200190815260200160002060030160008381526020019081526020016000206002015490506000806000858152602001908152602001600020600301600084815260200190815260200160002060040160009054906101000a900473ffffffffffffffffffffffffffffffffffffffff1690508073ffffffffffffffffffffffffffffffffffffffff166108fc839081150290604051600060405180830381858888f193505050501580156111a4573d6000803e3d6000fd5b506001600260008373ffffffffffffffffffffffffffffffffffffffff1673ffffffffffffffffffffffffffffffffffffffff16815260200190815260200160002060050160008282546111f89190612daa565b925050819055507f9ba01c1cf20940d4ad9b32173c4bd46bf426aae91b6cb420123d2aa5e2b76c6f848483856040516112349493929190612edc565b60405180910390a150505050565b60026020528060005260406000206000915090508060000180546112659061258a565b80601f01602080910402602001604051908101604052809291908181526020018280546112919061258a565b80156112de5780601f106112b3576101008083540402835291602001916112de565b820191906000526020600020905b8154815290600101906020018083116112c157829003601f168201915b5050505050908060010154908060020180546112f99061258a565b80601f01602080910402602001604051908101604052809291908181526020018280546113259061258a565b80156113725780601f1061134757610100808354040283529160200191611372565b820191906000526020600020905b81548152906001019060200180831161135557829003601f168201915b5050505050908060030180546113879061258a565b80601f01602080910402602001604051908101604052809291908181526020018280546113b39061258a565b80156114005780601f106113d557610100808354040283529160200191611400565b820191906000526020600020905b8154815290600101906020018083116113e357829003601f168201915b5050505050908060040180546114159061258a565b80601f01602080910402602001604051908101604052809291908181526020018280546114419061258a565b801561148e5780601f106114635761010080835404028352916020019161148e565b820191906000526020600020905b81548152906001019060200180831161147157829003601f168201915b5050505050908060050154908060060154908060070154905088565b6000600180546114ba91906128b9565b905090565b600080838152602001908152602001600020600301600082815260200190815260200160002060040160009054906101000a900473ffffffffffffffffffffffffffffffffffffffff1673ffffffffffffffffffffffffffffffffffffffff163373ffffffffffffffffffffffffffffffffffffffff1614611576576040517f08c379a000000000000000000000000000000000000000000000000000000000815260040161156d90612f93565b60405180910390fd5b6001600080848152602001908152602001600020600301600083815260200190815260200160002060060160006101000a81548160ff0219169083151502179055507ff9c405f91e34dcd1dc136cf6992ada4a8c24a2803e0fab7546364c64dac7ba2b82826040516115e9929190612fb3565b60405180910390a15050565b600080848152602001908152602001600020600301600083815260200190815260200160002060060160009054906101000a900460ff161561166c576040517f08c379a000000000000000000000000000000000000000000000000000000000815260040161166390612d8a565b60405180910390fd5b80600080858152602001908152602001600020600301600084815260200190815260200160002060040160006101000a81548173ffffffffffffffffffffffffffffffffffffffff021916908373ffffffffffffffffffffffffffffffffffffffff1602179055507f8f309f47dbd966575d821f13a401f294d3436f03096a9db4ccb5ac77d299260783838360405161170793929190612fdc565b60405180910390a1505050565b6060600080600085815260200190815260200160002060030160008481526020019081526020016000206005015467ffffffffffffffff81111561175b5761175a611f39565b5b60405190808252806020026020018201604052801561179457816020015b611781611c86565b8152602001906001900390816117795790505b50905060005b6000808681526020019081526020016000206003016000858152602001908152602001600020600501548110156119c557600080868152602001908152602001600020600301600085815260200190815260200160002060030160008281526020019081526020016000206040518060800160405290816000820180546118209061258a565b80601f016020809104026020016040519081016040528092919081815260200182805461184c9061258a565b80156118995780601f1061186e57610100808354040283529160200191611899565b820191906000526020600020905b81548152906001019060200180831161187c57829003601f168201915b505050505081526020016001820160009054906101000a900473ffffffffffffffffffffffffffffffffffffffff1673ffffffffffffffffffffffffffffffffffffffff1673ffffffffffffffffffffffffffffffffffffffff168152602001600282015481526020016003820180546119129061258a565b80601f016020809104026020016040519081016040528092919081815260200182805461193e9061258a565b801561198b5780601f106119605761010080835404028352916020019161198b565b820191906000526020600020905b81548152906001019060200180831161196e57829003601f168201915b5050505050815250508282815181106119a7576119a6613013565b5b602002602001018190525080806119bd90612871565b91505061179a565b508091505092915050565b60008083815260200190815260200160002060020160009054906101000a900473ffffffffffffffffffffffffffffffffffffffff1673ffffffffffffffffffffffffffffffffffffffff163373ffffffffffffffffffffffffffffffffffffffff1614611a73576040517f08c379a0000000000000000000000000000000000000000000000000000000008152600401611a6a906130b4565b60405180910390fd5b600080838152602001908152602001600020600301600082815260200190815260200160002060060160009054906101000a900460ff1615611aea576040517f08c379a0000000000000000000000000000000000000000000000000000000008152600401611ae190612d8a565b60405180910390fd5b5050565b60008083815260200190815260200160002060020160009054906101000a900473ffffffffffffffffffffffffffffffffffffffff1673ffffffffffffffffffffffffffffffffffffffff163373ffffffffffffffffffffffffffffffffffffffff1614611b91576040517f08c379a0000000000000000000000000000000000000000000000000000000008152600401611b8890613146565b60405180910390fd5b600080838152602001908152602001600020600301600082815260200190815260200160002060060160009054906101000a900460ff16611c07576040517f08c379a0000000000000000000000000000000000000000000000000000000008152600401611bfe906131b2565b60405180910390fd5b6001600080848152602001908152602001600020600301600083815260200190815260200160002060060160016101000a81548160ff0219169083151502179055507fb389ae8814638c1b4372b4841418ca0262f4e9b76e3b4a73234cf197392288e68282604051611c7a929190612fb3565b60405180910390a15050565b604051806080016040528060608152602001600073ffffffffffffffffffffffffffffffffffffffff16815260200160008152602001606081525090565b6000604051905090565b600080fd5b600080fd5b6000819050919050565b611ceb81611cd8565b8114611cf657600080fd5b50565b600081359050611d0881611ce2565b92915050565b600060208284031215611d2457611d23611cce565b5b6000611d3284828501611cf9565b91505092915050565b600081519050919050565b600082825260208201905092915050565b60005b83811015611d75578082015181840152602081019050611d5a565b60008484015250505050565b6000601f19601f8301169050919050565b6000611d9d82611d3b565b611da78185611d46565b9350611db7818560208601611d57565b611dc081611d81565b840191505092915050565b611dd481611cd8565b82525050565b600073ffffffffffffffffffffffffffffffffffffffff82169050919050565b6000611e0582611dda565b9050919050565b611e1581611dfa565b82525050565b60006080820190508181036000830152611e358187611d92565b9050611e446020830186611dcb565b611e516040830185611e0c565b611e5e6060830184611dcb565b95945050505050565b6000602082019050611e7c6000830184611dcb565b92915050565b600080fd5b600080fd5b600080fd5b60008083601f840112611ea757611ea6611e82565b5b8235905067ffffffffffffffff811115611ec457611ec3611e87565b5b602083019150836001820283011115611ee057611edf611e8c565b5b9250929050565b60008060208385031215611efe57611efd611cce565b5b600083013567ffffffffffffffff811115611f1c57611f1b611cd3565b5b611f2885828601611e91565b92509250509250929050565b600080fd5b7f4e487b7100000000000000000000000000000000000000000000000000000000600052604160045260246000fd5b611f7182611d81565b810181811067ffffffffffffffff82111715611f9057611f8f611f39565b5b80604052505050565b6000611fa3611cc4565b9050611faf8282611f68565b919050565b600067ffffffffffffffff821115611fcf57611fce611f39565b5b611fd882611d81565b9050602081019050919050565b82818337600083830152505050565b600061200761200284611fb4565b611f99565b90508281526020810184848401111561202357612022611f34565b5b61202e848285611fe5565b509392505050565b600082601f83011261204b5761204a611e82565b5b813561205b848260208601611ff4565b91505092915050565b60008060008060008060a0878903121561208157612080611cce565b5b600061208f89828a01611cf9565b96505060206120a089828a01611cf9565b95505060406120b189828a01611cf9565b945050606087013567ffffffffffffffff8111156120d2576120d1611cd3565b5b6120de89828a01612036565b935050608087013567ffffffffffffffff8111156120ff576120fe611cd3565b5b61210b89828a01611e91565b92509250509295509295509295565b6000806040838503121561213157612130611cce565b5b600061213f85828601611cf9565b925050602061215085828601611cf9565b9150509250929050565b60008115159050919050565b61216f8161215a565b82525050565b600060e082019050818103600083015261218f818a611d92565b905061219e6020830189611dcb565b6121ab6040830188611dcb565b6121b86060830187611dcb565b6121c56080830186611e0c565b6121d260a0830185612166565b6121df60c0830184612166565b98975050505050505050565b6000806000806060858703121561220557612204611cce565b5b600061221387828801611cf9565b945050602061222487828801611cf9565b935050604085013567ffffffffffffffff81111561224557612244611cd3565b5b61225187828801611e91565b925092505092959194509250565b61226881611dfa565b811461227357600080fd5b50565b6000813590506122858161225f565b92915050565b6000602082840312156122a1576122a0611cce565b5b60006122af84828501612276565b91505092915050565b60006101008201905081810360008301526122d3818b611d92565b90506122e2602083018a611dcb565b81810360408301526122f48189611d92565b905081810360608301526123088188611d92565b9050818103608083015261231c8187611d92565b905061232b60a0830186611dcb565b61233860c0830185611dcb565b61234560e0830184611dcb565b9998505050505050505050565b60008060006060848603121561236b5761236a611cce565b5b600061237986828701611cf9565b935050602061238a86828701611cf9565b925050604061239b86828701612276565b9150509250925092565b600081519050919050565b600082825260208201905092915050565b6000819050602082019050919050565b600082825260208201905092915050565b60006123ed82611d3b565b6123f781856123d1565b9350612407818560208601611d57565b61241081611d81565b840191505092915050565b61242481611dfa565b82525050565b61243381611cd8565b82525050565b6000608083016000830151848203600086015261245682826123e2565b915050602083015161246b602086018261241b565b50604083015161247e604086018261242a565b506060830151848203606086015261249682826123e2565b9150508091505092915050565b60006124af8383612439565b905092915050565b6000602082019050919050565b60006124cf826123a5565b6124d981856123b0565b9350836020820285016124eb856123c1565b8060005b85811015612527578484038952815161250885826124a3565b9450612513836124b7565b925060208a019950506001810190506124ef565b50829750879550505050505092915050565b6000602082019050818103600083015261255381846124c4565b905092915050565b7f4e487b7100000000000000000000000000000000000000000000000000000000600052602260045260246000fd5b600060028204905060018216806125a257607f821691505b6020821081036125b5576125b461255b565b5b50919050565b600082905092915050565b60008190508160005260206000209050919050565b60006020601f8301049050919050565b600082821b905092915050565b6000600883026126287fffffffffffffffffffffffffffffffffffffffffffffffffffffffffffffffff826125eb565b61263286836125eb565b95508019841693508086168417925050509392505050565b6000819050919050565b600061266f61266a61266584611cd8565b61264a565b611cd8565b9050919050565b6000819050919050565b61268983612654565b61269d61269582612676565b8484546125f8565b825550505050565b600090565b6126b26126a5565b6126bd818484612680565b505050565b5b818110156126e1576126d66000826126aa565b6001810190506126c3565b5050565b601f821115612726576126f7816125c6565b612700846125db565b8101602085101561270f578190505b61272361271b856125db565b8301826126c2565b50505b505050565b600082821c905092915050565b60006127496000198460080261272b565b1980831691505092915050565b60006127628383612738565b9150826002028217905092915050565b61277c83836125bb565b67ffffffffffffffff81111561279557612794611f39565b5b61279f825461258a565b6127aa8282856126e5565b6000601f8311600181146127d957600084156127c7578287013590505b6127d18582612756565b865550612839565b601f1984166127e7866125c6565b60005b8281101561280f578489013582556001820191506020850194506020810190506127ea565b8683101561282c5784890135612828601f891682612738565b8355505b6001600288020188555050505b50505050505050565b7f4e487b7100000000000000000000000000000000000000000000000000000000600052601160045260246000fd5b600061287c82611cd8565b91507fffffffffffffffffffffffffffffffffffffffffffffffffffffffffffffffff82036128ae576128ad612842565b5b600182019050919050565b60006128c482611cd8565b91506128cf83611cd8565b92508282039050818111156128e7576128e6612842565b5b92915050565b60006128f98385611d46565b9350612906838584611fe5565b61290f83611d81565b840190509392505050565b600060608201905061292f6000830187611dcb565b61293c6020830186611e0c565b818103604083015261294f8184866128ed565b905095945050505050565b7f467265656c616e6365722068617320616c7265616479206265656e2073656c6560008201527f6374656420666f722074686973207461736b0000000000000000000000000000602082015250565b60006129b6603283611d46565b91506129c18261295a565b604082019050919050565b600060208201905081810360008301526129e5816129a9565b9050919050565b6129f582611d3b565b67ffffffffffffffff811115612a0e57612a0d611f39565b5b612a18825461258a565b612a238282856126e5565b600060209050601f831160018114612a565760008415612a44578287015190505b612a4e8582612756565b865550612ab6565b601f198416612a64866125c6565b60005b82811015612a8c57848901518255600182019150602085019450602081019050612a67565b86831015612aa95784890151612aa5601f891682612738565b8355505b6001600288020188555050505b505050505050565b600060a082019050612ad36000830189611dcb565b612ae06020830188611dcb565b612aed6040830187611e0c565b612afa6060830186611dcb565b8181036080830152612b0d8184866128ed565b9050979650505050505050565b7f4f6e6c792070726f6a656374206d616e616765722063616e206372656174652060008201527f7461736b73000000000000000000000000000000000000000000000000000000602082015250565b6000612b76602583611d46565b9150612b8182612b1a565b604082019050919050565b60006020820190508181036000830152612ba581612b69565b9050919050565b600081905092915050565b50565b6000612bc7600083612bac565b9150612bd282612bb7565b600082019050919050565b6000612be882612bba565b9150819050919050565b7f4e6f742073656e74000000000000000000000000000000000000000000000000600082015250565b6000612c28600883611d46565b9150612c3382612bf2565b602082019050919050565b60006020820190508181036000830152612c5781612c1b565b9050919050565b6000608082019050612c736000830188611dcb565b612c806020830187611dcb565b612c8d6040830186611dcb565b8181036060830152612ca08184866128ed565b90509695505050505050565b7f4f6e6c792070726f6a656374206d616e616765722063616e20696e637265617360008201527f65207374616b656420616d6f756e740000000000000000000000000000000000602082015250565b6000612d08602f83611d46565b9150612d1382612cac565b604082019050919050565b60006020820190508181036000830152612d3781612cfb565b9050919050565b7f5461736b20697320616c726561647920636f6d706c6574656400000000000000600082015250565b6000612d74601983611d46565b9150612d7f82612d3e565b602082019050919050565b60006020820190508181036000830152612da381612d67565b9050919050565b6000612db582611cd8565b9150612dc083611cd8565b9250828201905080821115612dd857612dd7612842565b5b92915050565b7f4f6e6c792070726f6a656374206d616e616765722063616e2072656c6561736560008201527f207061796d656e74000000000000000000000000000000000000000000000000602082015250565b6000612e3a602883611d46565b9150612e4582612dde565b604082019050919050565b60006020820190508181036000830152612e6981612e2d565b9050919050565b7f5461736b206973206e6f74207265766965776564207965740000000000000000600082015250565b6000612ea6601883611d46565b9150612eb182612e70565b602082019050919050565b60006020820190508181036000830152612ed581612e99565b9050919050565b6000608082019050612ef16000830187611dcb565b612efe6020830186611dcb565b612f0b6040830185611e0c565b612f186060830184611dcb565b95945050505050565b7f4f6e6c792073656c656374656420776f726b65722063616e20636f6d706c657460008201527f6520746865207461736b00000000000000000000000000000000000000000000602082015250565b6000612f7d602a83611d46565b9150612f8882612f21565b604082019050919050565b60006020820190508181036000830152612fac81612f70565b9050919050565b6000604082019050612fc86000830185611dcb565b612fd56020830184611dcb565b9392505050565b6000606082019050612ff16000830186611dcb565b612ffe6020830185611dcb565b61300b6040830184611e0c565b949350505050565b7f4e487b7100000000000000000000000000000000000000000000000000000000600052603260045260246000fd5b7f4f6e6c792070726f6a656374206d616e616765722063616e20726566756e642060008201527f7374616b656420616d6f756e7400000000000000000000000000000000000000602082015250565b600061309e602d83611d46565b91506130a982613042565b604082019050919050565b600060208201905081810360008301526130cd81613091565b9050919050565b7f4f6e6c792070726f6a656374206d616e616765722063616e207265766965772060008201527f5461736b00000000000000000000000000000000000000000000000000000000602082015250565b6000613130602483611d46565b915061313b826130d4565b604082019050919050565b6000602082019050818103600083015261315f81613123565b9050919050565b7f5461736b206973206e6f7420636f6d706c657465642079657400000000000000600082015250565b600061319c601983611d46565b91506131a782613166565b602082019050919050565b600060208201905081810360008301526131cb8161318f565b905091905056fea2646970667358221220308707bbb4e761c7a1d2488f299e6097e255d647effc1f0b6f2e88c99dc38cae64736f6c63430008110033",
  "linkReferences": {},
  "deployedLinkReferences": {}
}