{
  "_format": "hh-sol-artifact-1",
  "contractName": "JobPortal",
  "sourceName": "contracts/JobPortal.sol",
  "abi": [
    {
      "anonymous": false,
      "inputs": [
        {
          "indexed": false,
          "internalType": "uint256",
          "name": "projectId",
          "type": "uint256"
        },
        {
          "indexed": false,
          "internalType": "address",
          "name": "projectManager",
          "type": "address"
        },
        {
          "indexed": false,
          "internalType": "string",
          "name": "projectURI",
          "type": "string"
        }
      ],
      "name": "NewProject",
      "type": "event"
    },
    {
      "anonymous": false,
      "inputs": [
        {
          "indexed": false,
          "internalType": "uint256",
          "name": "projectId",
          "type": "uint256"
        },
        {
          "indexed": false,
          "internalType": "uint256",
          "name": "taskId",
          "type": "uint256"
        },
        {
          "indexed": false,
          "internalType": "address",
          "name": "freelancer",
          "type": "address"
        },
        {
          "indexed": false,
          "internalType": "uint256",
          "name": "bidAmount",
          "type": "uint256"
        },
        {
          "indexed": false,
          "internalType": "string",
          "name": "proposalURI",
          "type": "string"
        },
        {
          "indexed": false,
          "internalType": "bool",
          "name": "isWaiting",
          "type": "bool"
        },
        {
          "indexed": false,
          "internalType": "bool",
          "name": "isAccepted",
          "type": "bool"
        }
      ],
      "name": "NewProposal",
      "type": "event"
    },
    {
      "anonymous": false,
      "inputs": [
        {
          "indexed": false,
          "internalType": "uint256",
          "name": "projectId",
          "type": "uint256"
        },
        {
          "indexed": false,
          "internalType": "uint256",
          "name": "taskId",
          "type": "uint256"
        },
        {
          "indexed": false,
          "internalType": "uint256",
          "name": "stakedAmount",
          "type": "uint256"
        },
        {
          "indexed": false,
          "internalType": "string",
          "name": "taskURI",
          "type": "string"
        }
      ],
      "name": "NewTask",
      "type": "event"
    },
    {
      "anonymous": false,
      "inputs": [
        {
          "indexed": false,
          "internalType": "uint256",
          "name": "projectId",
          "type": "uint256"
        },
        {
          "indexed": false,
          "internalType": "uint256",
          "name": "taskId",
          "type": "uint256"
        },
        {
          "indexed": false,
          "internalType": "address",
          "name": "worker",
          "type": "address"
        },
        {
          "indexed": false,
          "internalType": "uint256",
          "name": "amount",
          "type": "uint256"
        }
      ],
      "name": "PaymentReleased",
      "type": "event"
    },
    {
      "anonymous": false,
      "inputs": [
        {
          "indexed": false,
          "internalType": "uint256",
          "name": "projectId",
          "type": "uint256"
        },
        {
          "indexed": false,
          "internalType": "uint256",
          "name": "taskId",
          "type": "uint256"
        }
      ],
      "name": "ReviewCompleted",
      "type": "event"
    },
    {
      "anonymous": false,
      "inputs": [
        {
          "indexed": false,
          "internalType": "uint256",
          "name": "projectId",
          "type": "uint256"
        },
        {
          "indexed": false,
          "internalType": "uint256",
          "name": "taskId",
          "type": "uint256"
        }
      ],
      "name": "TaskCompleted",
      "type": "event"
    },
    {
      "anonymous": false,
      "inputs": [
        {
          "indexed": false,
          "internalType": "uint256",
          "name": "projectId",
          "type": "uint256"
        },
        {
          "indexed": false,
          "internalType": "uint256",
          "name": "taskId",
          "type": "uint256"
        },
        {
          "indexed": false,
          "internalType": "address",
          "name": "worker",
          "type": "address"
        }
      ],
      "name": "WorkerSelected",
      "type": "event"
    },
    {
      "inputs": [
        {
          "internalType": "string",
          "name": "personURI",
          "type": "string"
        },
        {
          "internalType": "string",
          "name": "name",
          "type": "string"
        },
        {
          "internalType": "string",
          "name": "wallet_address",
          "type": "string"
        },
        {
          "internalType": "string",
          "name": "description",
          "type": "string"
        }
      ],
      "name": "addPerson",
      "outputs": [],
      "stateMutability": "nonpayable",
      "type": "function"
    },
    {
      "inputs": [
        {
          "internalType": "uint256",
          "name": "projectId",
          "type": "uint256"
        },
        {
          "internalType": "uint256",
          "name": "taskId",
          "type": "uint256"
        }
      ],
      "name": "completeTaskWorker",
      "outputs": [],
      "stateMutability": "nonpayable",
      "type": "function"
    },
    {
      "inputs": [
        {
          "internalType": "string",
          "name": "projectURI",
          "type": "string"
        }
      ],
      "name": "createProject",
      "outputs": [],
      "stateMutability": "nonpayable",
      "type": "function"
    },
    {
      "inputs": [
        {
          "internalType": "uint256",
          "name": "projectId",
          "type": "uint256"
        },
        {
          "internalType": "uint256",
          "name": "stakedAmount",
          "type": "uint256"
        },
        {
          "internalType": "string",
          "name": "taskURI",
          "type": "string"
        }
      ],
      "name": "createTask",
      "outputs": [],
      "stateMutability": "payable",
      "type": "function"
    },
    {
      "inputs": [],
      "name": "getBalance",
      "outputs": [
        {
          "internalType": "uint256",
          "name": "",
          "type": "uint256"
        }
      ],
      "stateMutability": "view",
      "type": "function"
    },
    {
      "inputs": [],
      "name": "getCurrentProjectId",
      "outputs": [
        {
          "internalType": "uint256",
          "name": "",
          "type": "uint256"
        }
      ],
      "stateMutability": "view",
      "type": "function"
    },
    {
      "inputs": [
        {
          "internalType": "uint256",
          "name": "projectId",
          "type": "uint256"
        },
        {
          "internalType": "uint256",
          "name": "taskId",
          "type": "uint256"
        }
      ],
      "name": "getProposalsByTaskId",
      "outputs": [
        {
          "components": [
            {
              "internalType": "bool",
              "name": "isWaiting",
              "type": "bool"
            },
            {
              "internalType": "bool",
              "name": "isAccepted",
              "type": "bool"
            },
            {
              "internalType": "string",
              "name": "proposalURI",
              "type": "string"
            },
            {
              "internalType": "address",
              "name": "freelancer",
              "type": "address"
            },
            {
              "internalType": "uint256",
              "name": "bidAmount",
              "type": "uint256"
            },
            {
              "internalType": "string",
              "name": "motivation",
              "type": "string"
            }
          ],
          "internalType": "struct JobPortal.Proposal[]",
          "name": "",
          "type": "tuple[]"
        }
      ],
      "stateMutability": "view",
      "type": "function"
    },
    {
      "inputs": [
        {
          "internalType": "uint256",
          "name": "projectId",
          "type": "uint256"
        },
        {
          "internalType": "uint256",
          "name": "taskId",
          "type": "uint256"
        }
      ],
      "name": "getStakedAmount",
      "outputs": [
        {
          "internalType": "uint256",
          "name": "",
          "type": "uint256"
        }
      ],
      "stateMutability": "view",
      "type": "function"
    },
    {
      "inputs": [
        {
          "internalType": "uint256",
          "name": "projectId",
          "type": "uint256"
        }
      ],
      "name": "getTaskCountByProjectId",
      "outputs": [
        {
          "internalType": "uint256",
          "name": "",
          "type": "uint256"
        }
      ],
      "stateMutability": "view",
      "type": "function"
    },
    {
      "inputs": [
        {
          "internalType": "uint256",
          "name": "projectId",
          "type": "uint256"
        },
        {
          "internalType": "uint256",
          "name": "taskId",
          "type": "uint256"
        }
      ],
      "name": "getTaskData",
      "outputs": [
        {
          "internalType": "string",
          "name": "taskURI",
          "type": "string"
        },
        {
          "internalType": "uint256",
          "name": "Id",
          "type": "uint256"
        },
        {
          "internalType": "uint256",
          "name": "stakedAmount",
          "type": "uint256"
        },
        {
          "internalType": "uint256",
          "name": "proposalCount",
          "type": "uint256"
        },
        {
          "internalType": "address",
          "name": "worker",
          "type": "address"
        },
        {
          "internalType": "bool",
          "name": "isComplete",
          "type": "bool"
        },
        {
          "internalType": "bool",
          "name": "isReviewed",
          "type": "bool"
        },
        {
          "internalType": "bool",
          "name": "isWaiting",
          "type": "bool"
        },
        {
          "internalType": "bool",
          "name": "onGoing",
          "type": "bool"
        }
      ],
      "stateMutability": "view",
      "type": "function"
    },
    {
      "inputs": [
        {
          "internalType": "uint256",
          "name": "projectId",
          "type": "uint256"
        },
        {
          "internalType": "uint256",
          "name": "taskId",
          "type": "uint256"
        }
      ],
      "name": "increaseStakedAmount",
      "outputs": [],
      "stateMutability": "payable",
      "type": "function"
    },
    {
      "inputs": [
        {
          "internalType": "address",
          "name": "",
          "type": "address"
        }
      ],
      "name": "person",
      "outputs": [
        {
          "internalType": "string",
          "name": "personURI",
          "type": "string"
        },
        {
          "internalType": "string",
          "name": "name",
          "type": "string"
        },
        {
          "internalType": "string",
          "name": "wallet_address",
          "type": "string"
        },
        {
          "internalType": "string",
          "name": "description",
          "type": "string"
        },
        {
          "internalType": "uint256",
          "name": "rating",
          "type": "uint256"
        },
        {
          "internalType": "uint256",
          "name": "total_projects",
          "type": "uint256"
        },
        {
          "internalType": "uint256",
          "name": "total_tasks",
          "type": "uint256"
        }
      ],
      "stateMutability": "view",
      "type": "function"
    },
    {
      "inputs": [],
      "name": "projectCount",
      "outputs": [
        {
          "internalType": "uint256",
          "name": "",
          "type": "uint256"
        }
      ],
      "stateMutability": "view",
      "type": "function"
    },
    {
      "inputs": [
        {
          "internalType": "uint256",
          "name": "",
          "type": "uint256"
        }
      ],
      "name": "projects",
      "outputs": [
        {
          "internalType": "string",
          "name": "projectURI",
          "type": "string"
        },
        {
          "internalType": "uint256",
          "name": "projectId",
          "type": "uint256"
        },
        {
          "internalType": "address",
          "name": "projectManager",
          "type": "address"
        },
        {
          "internalType": "uint256",
          "name": "taskCount",
          "type": "uint256"
        }
      ],
      "stateMutability": "view",
      "type": "function"
    },
    {
      "inputs": [
        {
          "internalType": "uint256",
          "name": "projectId",
          "type": "uint256"
        },
        {
          "internalType": "uint256",
          "name": "taskId",
          "type": "uint256"
        }
      ],
      "name": "refundStakedAmount",
      "outputs": [],
      "stateMutability": "payable",
      "type": "function"
    },
    {
      "inputs": [
        {
          "internalType": "uint256",
          "name": "projectId",
          "type": "uint256"
        },
        {
          "internalType": "uint256",
          "name": "taskId",
          "type": "uint256"
        }
      ],
      "name": "releasePayment",
      "outputs": [],
      "stateMutability": "payable",
      "type": "function"
    },
    {
      "inputs": [
        {
          "internalType": "uint256",
          "name": "projectId",
          "type": "uint256"
        },
        {
          "internalType": "uint256",
          "name": "taskId",
          "type": "uint256"
        }
      ],
      "name": "reviewTask",
      "outputs": [],
      "stateMutability": "nonpayable",
      "type": "function"
    },
    {
      "inputs": [
        {
          "internalType": "uint256",
          "name": "projectId",
          "type": "uint256"
        },
        {
          "internalType": "uint256",
          "name": "taskId",
          "type": "uint256"
        },
        {
          "internalType": "address",
          "name": "worker",
          "type": "address"
        }
      ],
      "name": "selectWorker",
      "outputs": [],
      "stateMutability": "nonpayable",
      "type": "function"
    },
    {
      "inputs": [
        {
          "internalType": "uint256",
          "name": "projectId",
          "type": "uint256"
        },
        {
          "internalType": "uint256",
          "name": "taskId",
          "type": "uint256"
        },
        {
          "internalType": "uint256",
          "name": "bidAmount",
          "type": "uint256"
        },
        {
          "internalType": "string",
          "name": "motivation",
          "type": "string"
        },
        {
          "internalType": "string",
          "name": "proposalURI",
          "type": "string"
        }
      ],
      "name": "sendProposal",
      "outputs": [],
      "stateMutability": "nonpayable",
      "type": "function"
    },
    {
      "stateMutability": "payable",
      "type": "receive"
    }
  ],
  "bytecode": "0x608060405234801561001057600080fd5b50613a20806100206000396000f3fe6080604052600436106101185760003560e01c806392adc438116100a0578063ce6b466011610064578063ce6b4660146103a2578063e2d7baac146103cb578063e76239d814610408578063f6e847db14610424578063f7e5c81e146104615761011f565b806392adc438146102d357806397e99a80146102ef578063b7e4b2651461030b578063c868ba9a1461034e578063ce42fc08146103795761011f565b806336fbad26116100e757806336fbad26146101f5578063446e707d1461022057806360a8940e146102495780636708c2401461027257806382b35017146102b75761011f565b8063107046bd1461012457806312065fe01461016457806315ee4df11461018f5780632463efca146101b85761011f565b3661011f57005b600080fd5b34801561013057600080fd5b5061014b600480360381019061014691906123ef565b61048a565b60405161015b94939291906124fc565b60405180910390f35b34801561017057600080fd5b50610179610562565b6040516101869190612548565b60405180910390f35b34801561019b57600080fd5b506101b660048036038101906101b191906125c8565b61056a565b005b3480156101c457600080fd5b506101df60048036038101906101da91906123ef565b610688565b6040516101ec9190612548565b60405180910390f35b34801561020157600080fd5b5061020a6106a7565b6040516102179190612548565b60405180910390f35b34801561022c57600080fd5b5061024760048036038101906102429190612745565b6106ad565b005b34801561025557600080fd5b50610270600480360381019061026b91906127fb565b610a2a565b005b34801561027e57600080fd5b50610299600480360381019061029491906128d2565b610c48565b6040516102ae9998979695949392919061292d565b60405180910390f35b6102d160048036038101906102cc91906129c1565b610dac565b005b6102ed60048036038101906102e891906128d2565b611127565b005b610309600480360381019061030491906128d2565b611335565b005b34801561031757600080fd5b50610332600480360381019061032d9190612a61565b6115dd565b6040516103459796959493929190612a8e565b60405180910390f35b34801561035a57600080fd5b5061036361183f565b6040516103709190612548565b60405180910390f35b34801561038557600080fd5b506103a0600480360381019061039b91906128d2565b611854565b005b3480156103ae57600080fd5b506103c960048036038101906103c49190612b19565b61198a565b005b3480156103d757600080fd5b506103f260048036038101906103ed91906128d2565b611c89565b6040516103ff9190612d35565b60405180910390f35b610422600480360381019061041d91906128d2565b611f7b565b005b34801561043057600080fd5b5061044b600480360381019061044691906128d2565b612189565b6040516104589190612548565b60405180910390f35b34801561046d57600080fd5b50610488600480360381019061048391906128d2565b6121bd565b005b60006020528060005260406000206000915090508060000180546104ad90612d86565b80601f01602080910402602001604051908101604052809291908181526020018280546104d990612d86565b80156105265780601f106104fb57610100808354040283529160200191610526565b820191906000526020600020905b81548152906001019060200180831161050957829003601f168201915b5050505050908060010154908060020160009054906101000a900473ffffffffffffffffffffffffffffffffffffffff16908060040154905084565b600047905090565b818160008060015481526020019081526020016000206000019182610590929190612f6e565b5060015460008060015481526020019081526020016000206001018190555033600080600154815260200190815260200160002060020160006101000a81548173ffffffffffffffffffffffffffffffffffffffff021916908373ffffffffffffffffffffffffffffffffffffffff1602179055506000806000600154815260200190815260200160002060040181905550600160008154809291906106359061306d565b91905055507fa974b2210ac17a1d9eb51946f0b5c8d97439a13bcb145bb58d3329f7d6da7e876001805461066991906130b5565b33848460405161067c9493929190613116565b60405180910390a15050565b6000806000838152602001908152602001600020600401549050919050565b60015481565b600080600088815260200190815260200160002060030160008781526020019081526020016000206005015490506000806000898152602001908152602001600020600301600088815260200190815260200160002060040160009054906101000a900473ffffffffffffffffffffffffffffffffffffffff169050600073ffffffffffffffffffffffffffffffffffffffff168173ffffffffffffffffffffffffffffffffffffffff1614610798576040517f08c379a000000000000000000000000000000000000000000000000000000000815260040161078f906131c8565b60405180910390fd5b83836000808b815260200190815260200160002060030160008a8152602001908152602001600020600301600085815260200190815260200160002060010191826107e4929190612f6e565b50336000808a81526020019081526020016000206003016000898152602001908152602001600020600301600084815260200190815260200160002060020160006101000a81548173ffffffffffffffffffffffffffffffffffffffff021916908373ffffffffffffffffffffffffffffffffffffffff160217905550856000808a81526020019081526020016000206003016000898152602001908152602001600020600301600084815260200190815260200160002060030181905550846000808a81526020019081526020016000206003016000898152602001908152602001600020600301600084815260200190815260200160002060040190816108ed91906131e8565b5060016000808a81526020019081526020016000206003016000898152602001908152602001600020600301600084815260200190815260200160002060000160006101000a81548160ff02191690831515021790555060008060008a81526020019081526020016000206003016000898152602001908152602001600020600301600084815260200190815260200160002060000160016101000a81548160ff021916908315150217905550600080898152602001908152602001600020600301600088815260200190815260200160002060050160008154809291906109d49061306d565b91905055507f5ce62d9613d22c9053cb894390a01c5dc38b34449121b09f3dd961ccb473806b88883389888860016000604051610a189897969594939291906132ba565b60405180910390a15050505050505050565b83600260003373ffffffffffffffffffffffffffffffffffffffff1673ffffffffffffffffffffffffffffffffffffffff1681526020019081526020016000206000019081610a7991906131e8565b5082600260003373ffffffffffffffffffffffffffffffffffffffff1673ffffffffffffffffffffffffffffffffffffffff1681526020019081526020016000206001019081610ac991906131e8565b5081600260003373ffffffffffffffffffffffffffffffffffffffff1673ffffffffffffffffffffffffffffffffffffffff1681526020019081526020016000206002019081610b1991906131e8565b5080600260003373ffffffffffffffffffffffffffffffffffffffff1673ffffffffffffffffffffffffffffffffffffffff1681526020019081526020016000206003019081610b6991906131e8565b506000600260003373ffffffffffffffffffffffffffffffffffffffff1673ffffffffffffffffffffffffffffffffffffffff168152602001908152602001600020600401819055506000600260003373ffffffffffffffffffffffffffffffffffffffff1673ffffffffffffffffffffffffffffffffffffffff168152602001908152602001600020600501819055506000600260003373ffffffffffffffffffffffffffffffffffffffff1673ffffffffffffffffffffffffffffffffffffffff1681526020019081526020016000206006018190555050505050565b606060008060008060008060008060008060008d815260200190815260200160002060030160008c81526020019081526020016000209050806000018160010154826002015483600501548460040160009054906101000a900473ffffffffffffffffffffffffffffffffffffffff168560060160009054906101000a900460ff168660060160019054906101000a900460ff168760060160029054906101000a900460ff168860060160039054906101000a900460ff16888054610d0c90612d86565b80601f0160208091040260200160405190810160405280929190818152602001828054610d3890612d86565b8015610d855780601f10610d5a57610100808354040283529160200191610d85565b820191906000526020600020905b815481529060010190602001808311610d6857829003601f168201915b50505050509850995099509950995099509950995099509950509295985092959850929598565b60008085815260200190815260200160002060020160009054906101000a900473ffffffffffffffffffffffffffffffffffffffff1673ffffffffffffffffffffffffffffffffffffffff163373ffffffffffffffffffffffffffffffffffffffff1614610e4f576040517f08c379a0000000000000000000000000000000000000000000000000000000008152600401610e46906133a4565b60405180910390fd5b818160008087815260200190815260200160002060030160008060008981526020019081526020016000206004015481526020019081526020016000206000019182610e9c929190612f6e565b5060008085815260200190815260200160002060040154600080868152602001908152602001600020600301600080600088815260200190815260200160002060040154815260200190815260200160002060010181905550826000808681526020019081526020016000206003016000806000888152602001908152602001600020600401548152602001908152602001600020600201819055506000806000868152602001908152602001600020600301600080600088815260200190815260200160002060040154815260200190815260200160002060060160006101000a81548160ff0219169083151502179055506000806000868152602001908152602001600020600301600080600088815260200190815260200160002060040154815260200190815260200160002060060160016101000a81548160ff021916908315150217905550600080858152602001908152602001600020600401600081548092919061100c9061306d565b91905055506000803073ffffffffffffffffffffffffffffffffffffffff1634604051611038906133f5565b60006040518083038185875af1925050503d8060008114611075576040519150601f19603f3d011682016040523d82523d6000602084013e61107a565b606091505b5091509150816110bf576040517f08c379a00000000000000000000000000000000000000000000000000000000081526004016110b690613456565b60405180910390fd5b7f6ad35e82867f5346b4cd8cbbe887194073ed7847826f00f643f312e0263aec2a8660016000808a81526020019081526020016000206004015461110391906130b5565b878787604051611117959493929190613476565b60405180910390a1505050505050565b60008083815260200190815260200160002060020160009054906101000a900473ffffffffffffffffffffffffffffffffffffffff1673ffffffffffffffffffffffffffffffffffffffff163373ffffffffffffffffffffffffffffffffffffffff16146111ca576040517f08c379a00000000000000000000000000000000000000000000000000000000081526004016111c190613536565b60405180910390fd5b600080838152602001908152602001600020600301600082815260200190815260200160002060060160009054906101000a900460ff1615611241576040517f08c379a0000000000000000000000000000000000000000000000000000000008152600401611238906135a2565b60405180910390fd5b346000808481526020019081526020016000206003016000838152602001908152602001600020600201600082825461127a91906135c2565b925050819055506000803073ffffffffffffffffffffffffffffffffffffffff16346040516112a8906133f5565b60006040518083038185875af1925050503d80600081146112e5576040519150601f19603f3d011682016040523d82523d6000602084013e6112ea565b606091505b50915091508161132f576040517f08c379a000000000000000000000000000000000000000000000000000000000815260040161132690613456565b60405180910390fd5b50505050565b60008083815260200190815260200160002060020160009054906101000a900473ffffffffffffffffffffffffffffffffffffffff1673ffffffffffffffffffffffffffffffffffffffff163373ffffffffffffffffffffffffffffffffffffffff16146113d8576040517f08c379a00000000000000000000000000000000000000000000000000000000081526004016113cf90613668565b60405180910390fd5b600080838152602001908152602001600020600301600082815260200190815260200160002060060160019054906101000a900460ff1661144e576040517f08c379a0000000000000000000000000000000000000000000000000000000008152600401611445906136d4565b60405180910390fd5b600080600084815260200190815260200160002060030160008381526020019081526020016000206002015490506000806000858152602001908152602001600020600301600084815260200190815260200160002060040160009054906101000a900473ffffffffffffffffffffffffffffffffffffffff1690508073ffffffffffffffffffffffffffffffffffffffff166108fc839081150290604051600060405180830381858888f19350505050158015611510573d6000803e3d6000fd5b5060008060008681526020019081526020016000206003016000858152602001908152602001600020600201819055506001600260008373ffffffffffffffffffffffffffffffffffffffff1673ffffffffffffffffffffffffffffffffffffffff168152602001908152602001600020600401600082825461159391906135c2565b925050819055507f9ba01c1cf20940d4ad9b32173c4bd46bf426aae91b6cb420123d2aa5e2b76c6f848483856040516115cf94939291906136f4565b60405180910390a150505050565b600260205280600052604060002060009150905080600001805461160090612d86565b80601f016020809104026020016040519081016040528092919081815260200182805461162c90612d86565b80156116795780601f1061164e57610100808354040283529160200191611679565b820191906000526020600020905b81548152906001019060200180831161165c57829003601f168201915b50505050509080600101805461168e90612d86565b80601f01602080910402602001604051908101604052809291908181526020018280546116ba90612d86565b80156117075780601f106116dc57610100808354040283529160200191611707565b820191906000526020600020905b8154815290600101906020018083116116ea57829003601f168201915b50505050509080600201805461171c90612d86565b80601f016020809104026020016040519081016040528092919081815260200182805461174890612d86565b80156117955780601f1061176a57610100808354040283529160200191611795565b820191906000526020600020905b81548152906001019060200180831161177857829003601f168201915b5050505050908060030180546117aa90612d86565b80601f01602080910402602001604051908101604052809291908181526020018280546117d690612d86565b80156118235780601f106117f857610100808354040283529160200191611823565b820191906000526020600020905b81548152906001019060200180831161180657829003601f168201915b5050505050908060040154908060050154908060060154905087565b60006001805461184f91906130b5565b905090565b600080838152602001908152602001600020600301600082815260200190815260200160002060040160009054906101000a900473ffffffffffffffffffffffffffffffffffffffff1673ffffffffffffffffffffffffffffffffffffffff163373ffffffffffffffffffffffffffffffffffffffff161461190b576040517f08c379a0000000000000000000000000000000000000000000000000000000008152600401611902906137ab565b60405180910390fd5b6001600080848152602001908152602001600020600301600083815260200190815260200160002060060160006101000a81548160ff0219169083151502179055507ff9c405f91e34dcd1dc136cf6992ada4a8c24a2803e0fab7546364c64dac7ba2b828260405161197e9291906137cb565b60405180910390a15050565b600080848152602001908152602001600020600301600083815260200190815260200160002060060160009054906101000a900460ff1615611a01576040517f08c379a00000000000000000000000000000000000000000000000000000000081526004016119f8906135a2565b60405180910390fd5b80600080858152602001908152602001600020600301600084815260200190815260200160002060040160006101000a81548173ffffffffffffffffffffffffffffffffffffffff021916908373ffffffffffffffffffffffffffffffffffffffff16021790555060005b600080858152602001908152602001600020600301600084815260200190815260200160002060050154811015611c48578173ffffffffffffffffffffffffffffffffffffffff166000808681526020019081526020016000206003016000858152602001908152602001600020600301600083815260200190815260200160002060020160009054906101000a900473ffffffffffffffffffffffffffffffffffffffff1673ffffffffffffffffffffffffffffffffffffffff1603611bde5760008060008681526020019081526020016000206003016000858152602001908152602001600020600301600083815260200190815260200160002060000160006101000a81548160ff02191690831515021790555060016000808681526020019081526020016000206003016000858152602001908152602001600020600301600083815260200190815260200160002060000160016101000a81548160ff021916908315150217905550611c35565b60008060008681526020019081526020016000206003016000858152602001908152602001600020600301600083815260200190815260200160002060000160016101000a81548160ff0219169083151502179055505b8080611c409061306d565b915050611a6c565b507f8f309f47dbd966575d821f13a401f294d3436f03096a9db4ccb5ac77d2992607838383604051611c7c939291906137f4565b60405180910390a1505050565b6060600080600085815260200190815260200160002060030160008481526020019081526020016000206005015467ffffffffffffffff811115611cd057611ccf61261a565b5b604051908082528060200260200182016040528015611d0957816020015b611cf6612355565b815260200190600190039081611cee5790505b50905060005b600080868152602001908152602001600020600301600085815260200190815260200160002060050154811015611f7057600080868152602001908152602001600020600301600085815260200190815260200160002060030160008281526020019081526020016000206040518060c00160405290816000820160009054906101000a900460ff161515151581526020016000820160019054906101000a900460ff16151515158152602001600182018054611dcb90612d86565b80601f0160208091040260200160405190810160405280929190818152602001828054611df790612d86565b8015611e445780601f10611e1957610100808354040283529160200191611e44565b820191906000526020600020905b815481529060010190602001808311611e2757829003601f168201915b505050505081526020016002820160009054906101000a900473ffffffffffffffffffffffffffffffffffffffff1673ffffffffffffffffffffffffffffffffffffffff1673ffffffffffffffffffffffffffffffffffffffff16815260200160038201548152602001600482018054611ebd90612d86565b80601f0160208091040260200160405190810160405280929190818152602001828054611ee990612d86565b8015611f365780601f10611f0b57610100808354040283529160200191611f36565b820191906000526020600020905b815481529060010190602001808311611f1957829003601f168201915b505050505081525050828281518110611f5257611f5161382b565b5b60200260200101819052508080611f689061306d565b915050611d0f565b508091505092915050565b60008083815260200190815260200160002060020160009054906101000a900473ffffffffffffffffffffffffffffffffffffffff1673ffffffffffffffffffffffffffffffffffffffff163373ffffffffffffffffffffffffffffffffffffffff161461201e576040517f08c379a0000000000000000000000000000000000000000000000000000000008152600401612015906138cc565b60405180910390fd5b600080838152602001908152602001600020600301600082815260200190815260200160002060060160009054906101000a900460ff1615612095576040517f08c379a000000000000000000000000000000000000000000000000000000000815260040161208c906135a2565b60405180910390fd5b34600080848152602001908152602001600020600301600083815260200190815260200160002060020160008282546120ce91906130b5565b925050819055506000803373ffffffffffffffffffffffffffffffffffffffff16346040516120fc906133f5565b60006040518083038185875af1925050503d8060008114612139576040519150601f19603f3d011682016040523d82523d6000602084013e61213e565b606091505b509150915081612183576040517f08c379a000000000000000000000000000000000000000000000000000000000815260040161217a90613456565b60405180910390fd5b50505050565b6000806000848152602001908152602001600020600301600083815260200190815260200160002060020154905092915050565b60008083815260200190815260200160002060020160009054906101000a900473ffffffffffffffffffffffffffffffffffffffff1673ffffffffffffffffffffffffffffffffffffffff163373ffffffffffffffffffffffffffffffffffffffff1614612260576040517f08c379a00000000000000000000000000000000000000000000000000000000081526004016122579061395e565b60405180910390fd5b600080838152602001908152602001600020600301600082815260200190815260200160002060060160009054906101000a900460ff166122d6576040517f08c379a00000000000000000000000000000000000000000000000000000000081526004016122cd906139ca565b60405180910390fd5b6001600080848152602001908152602001600020600301600083815260200190815260200160002060060160016101000a81548160ff0219169083151502179055507fb389ae8814638c1b4372b4841418ca0262f4e9b76e3b4a73234cf197392288e682826040516123499291906137cb565b60405180910390a15050565b6040518060c0016040528060001515815260200160001515815260200160608152602001600073ffffffffffffffffffffffffffffffffffffffff16815260200160008152602001606081525090565b6000604051905090565b600080fd5b600080fd5b6000819050919050565b6123cc816123b9565b81146123d757600080fd5b50565b6000813590506123e9816123c3565b92915050565b600060208284031215612405576124046123af565b5b6000612413848285016123da565b91505092915050565b600081519050919050565b600082825260208201905092915050565b60005b8381101561245657808201518184015260208101905061243b565b60008484015250505050565b6000601f19601f8301169050919050565b600061247e8261241c565b6124888185612427565b9350612498818560208601612438565b6124a181612462565b840191505092915050565b6124b5816123b9565b82525050565b600073ffffffffffffffffffffffffffffffffffffffff82169050919050565b60006124e6826124bb565b9050919050565b6124f6816124db565b82525050565b600060808201905081810360008301526125168187612473565b905061252560208301866124ac565b61253260408301856124ed565b61253f60608301846124ac565b95945050505050565b600060208201905061255d60008301846124ac565b92915050565b600080fd5b600080fd5b600080fd5b60008083601f84011261258857612587612563565b5b8235905067ffffffffffffffff8111156125a5576125a4612568565b5b6020830191508360018202830111156125c1576125c061256d565b5b9250929050565b600080602083850312156125df576125de6123af565b5b600083013567ffffffffffffffff8111156125fd576125fc6123b4565b5b61260985828601612572565b92509250509250929050565b600080fd5b7f4e487b7100000000000000000000000000000000000000000000000000000000600052604160045260246000fd5b61265282612462565b810181811067ffffffffffffffff821117156126715761267061261a565b5b80604052505050565b60006126846123a5565b90506126908282612649565b919050565b600067ffffffffffffffff8211156126b0576126af61261a565b5b6126b982612462565b9050602081019050919050565b82818337600083830152505050565b60006126e86126e384612695565b61267a565b90508281526020810184848401111561270457612703612615565b5b61270f8482856126c6565b509392505050565b600082601f83011261272c5761272b612563565b5b813561273c8482602086016126d5565b91505092915050565b60008060008060008060a08789031215612762576127616123af565b5b600061277089828a016123da565b965050602061278189828a016123da565b955050604061279289828a016123da565b945050606087013567ffffffffffffffff8111156127b3576127b26123b4565b5b6127bf89828a01612717565b935050608087013567ffffffffffffffff8111156127e0576127df6123b4565b5b6127ec89828a01612572565b92509250509295509295509295565b60008060008060808587031215612815576128146123af565b5b600085013567ffffffffffffffff811115612833576128326123b4565b5b61283f87828801612717565b945050602085013567ffffffffffffffff8111156128605761285f6123b4565b5b61286c87828801612717565b935050604085013567ffffffffffffffff81111561288d5761288c6123b4565b5b61289987828801612717565b925050606085013567ffffffffffffffff8111156128ba576128b96123b4565b5b6128c687828801612717565b91505092959194509250565b600080604083850312156128e9576128e86123af565b5b60006128f7858286016123da565b9250506020612908858286016123da565b9150509250929050565b60008115159050919050565b61292781612912565b82525050565b6000610120820190508181036000830152612948818c612473565b9050612957602083018b6124ac565b612964604083018a6124ac565b61297160608301896124ac565b61297e60808301886124ed565b61298b60a083018761291e565b61299860c083018661291e565b6129a560e083018561291e565b6129b361010083018461291e565b9a9950505050505050505050565b600080600080606085870312156129db576129da6123af565b5b60006129e9878288016123da565b94505060206129fa878288016123da565b935050604085013567ffffffffffffffff811115612a1b57612a1a6123b4565b5b612a2787828801612572565b925092505092959194509250565b612a3e816124db565b8114612a4957600080fd5b50565b600081359050612a5b81612a35565b92915050565b600060208284031215612a7757612a766123af565b5b6000612a8584828501612a4c565b91505092915050565b600060e0820190508181036000830152612aa8818a612473565b90508181036020830152612abc8189612473565b90508181036040830152612ad08188612473565b90508181036060830152612ae48187612473565b9050612af360808301866124ac565b612b0060a08301856124ac565b612b0d60c08301846124ac565b98975050505050505050565b600080600060608486031215612b3257612b316123af565b5b6000612b40868287016123da565b9350506020612b51868287016123da565b9250506040612b6286828701612a4c565b9150509250925092565b600081519050919050565b600082825260208201905092915050565b6000819050602082019050919050565b612ba181612912565b82525050565b600082825260208201905092915050565b6000612bc38261241c565b612bcd8185612ba7565b9350612bdd818560208601612438565b612be681612462565b840191505092915050565b612bfa816124db565b82525050565b612c09816123b9565b82525050565b600060c083016000830151612c276000860182612b98565b506020830151612c3a6020860182612b98565b5060408301518482036040860152612c528282612bb8565b9150506060830151612c676060860182612bf1565b506080830151612c7a6080860182612c00565b5060a083015184820360a0860152612c928282612bb8565b9150508091505092915050565b6000612cab8383612c0f565b905092915050565b6000602082019050919050565b6000612ccb82612b6c565b612cd58185612b77565b935083602082028501612ce785612b88565b8060005b85811015612d235784840389528151612d048582612c9f565b9450612d0f83612cb3565b925060208a01995050600181019050612ceb565b50829750879550505050505092915050565b60006020820190508181036000830152612d4f8184612cc0565b905092915050565b7f4e487b7100000000000000000000000000000000000000000000000000000000600052602260045260246000fd5b60006002820490506001821680612d9e57607f821691505b602082108103612db157612db0612d57565b5b50919050565b600082905092915050565b60008190508160005260206000209050919050565b60006020601f8301049050919050565b600082821b905092915050565b600060088302612e247fffffffffffffffffffffffffffffffffffffffffffffffffffffffffffffffff82612de7565b612e2e8683612de7565b95508019841693508086168417925050509392505050565b6000819050919050565b6000612e6b612e66612e61846123b9565b612e46565b6123b9565b9050919050565b6000819050919050565b612e8583612e50565b612e99612e9182612e72565b848454612df4565b825550505050565b600090565b612eae612ea1565b612eb9818484612e7c565b505050565b5b81811015612edd57612ed2600082612ea6565b600181019050612ebf565b5050565b601f821115612f2257612ef381612dc2565b612efc84612dd7565b81016020851015612f0b578190505b612f1f612f1785612dd7565b830182612ebe565b50505b505050565b600082821c905092915050565b6000612f4560001984600802612f27565b1980831691505092915050565b6000612f5e8383612f34565b9150826002028217905092915050565b612f788383612db7565b67ffffffffffffffff811115612f9157612f9061261a565b5b612f9b8254612d86565b612fa6828285612ee1565b6000601f831160018114612fd55760008415612fc3578287013590505b612fcd8582612f52565b865550613035565b601f198416612fe386612dc2565b60005b8281101561300b57848901358255600182019150602085019450602081019050612fe6565b868310156130285784890135613024601f891682612f34565b8355505b6001600288020188555050505b50505050505050565b7f4e487b7100000000000000000000000000000000000000000000000000000000600052601160045260246000fd5b6000613078826123b9565b91507fffffffffffffffffffffffffffffffffffffffffffffffffffffffffffffffff82036130aa576130a961303e565b5b600182019050919050565b60006130c0826123b9565b91506130cb836123b9565b92508282039050818111156130e3576130e261303e565b5b92915050565b60006130f58385612427565b93506131028385846126c6565b61310b83612462565b840190509392505050565b600060608201905061312b60008301876124ac565b61313860208301866124ed565b818103604083015261314b8184866130e9565b905095945050505050565b7f467265656c616e6365722068617320616c7265616479206265656e2073656c6560008201527f6374656420666f722074686973207461736b0000000000000000000000000000602082015250565b60006131b2603283612427565b91506131bd82613156565b604082019050919050565b600060208201905081810360008301526131e1816131a5565b9050919050565b6131f18261241c565b67ffffffffffffffff81111561320a5761320961261a565b5b6132148254612d86565b61321f828285612ee1565b600060209050601f8311600181146132525760008415613240578287015190505b61324a8582612f52565b8655506132b2565b601f19841661326086612dc2565b60005b8281101561328857848901518255600182019150602085019450602081019050613263565b868310156132a557848901516132a1601f891682612f34565b8355505b6001600288020188555050505b505050505050565b600060e0820190506132cf600083018b6124ac565b6132dc602083018a6124ac565b6132e960408301896124ed565b6132f660608301886124ac565b81810360808301526133098186886130e9565b905061331860a083018561291e565b61332560c083018461291e565b9998505050505050505050565b7f4f6e6c792070726f6a656374206d616e616765722063616e206372656174652060008201527f7461736b73000000000000000000000000000000000000000000000000000000602082015250565b600061338e602583612427565b915061339982613332565b604082019050919050565b600060208201905081810360008301526133bd81613381565b9050919050565b600081905092915050565b50565b60006133df6000836133c4565b91506133ea826133cf565b600082019050919050565b6000613400826133d2565b9150819050919050565b7f4e6f742073656e74000000000000000000000000000000000000000000000000600082015250565b6000613440600883612427565b915061344b8261340a565b602082019050919050565b6000602082019050818103600083015261346f81613433565b9050919050565b600060808201905061348b60008301886124ac565b61349860208301876124ac565b6134a560408301866124ac565b81810360608301526134b88184866130e9565b90509695505050505050565b7f4f6e6c792070726f6a656374206d616e616765722063616e20696e637265617360008201527f65207374616b656420616d6f756e740000000000000000000000000000000000602082015250565b6000613520602f83612427565b915061352b826134c4565b604082019050919050565b6000602082019050818103600083015261354f81613513565b9050919050565b7f5461736b20697320616c726561647920636f6d706c6574656400000000000000600082015250565b600061358c601983612427565b915061359782613556565b602082019050919050565b600060208201905081810360008301526135bb8161357f565b9050919050565b60006135cd826123b9565b91506135d8836123b9565b92508282019050808211156135f0576135ef61303e565b5b92915050565b7f4f6e6c792070726f6a656374206d616e616765722063616e2072656c6561736560008201527f207061796d656e74000000000000000000000000000000000000000000000000602082015250565b6000613652602883612427565b915061365d826135f6565b604082019050919050565b6000602082019050818103600083015261368181613645565b9050919050565b7f5461736b206973206e6f74207265766965776564207965740000000000000000600082015250565b60006136be601883612427565b91506136c982613688565b602082019050919050565b600060208201905081810360008301526136ed816136b1565b9050919050565b600060808201905061370960008301876124ac565b61371660208301866124ac565b61372360408301856124ed565b61373060608301846124ac565b95945050505050565b7f4f6e6c792073656c656374656420776f726b65722063616e20636f6d706c657460008201527f6520746865207461736b00000000000000000000000000000000000000000000602082015250565b6000613795602a83612427565b91506137a082613739565b604082019050919050565b600060208201905081810360008301526137c481613788565b9050919050565b60006040820190506137e060008301856124ac565b6137ed60208301846124ac565b9392505050565b600060608201905061380960008301866124ac565b61381660208301856124ac565b61382360408301846124ed565b949350505050565b7f4e487b7100000000000000000000000000000000000000000000000000000000600052603260045260246000fd5b7f4f6e6c792070726f6a656374206d616e616765722063616e20726566756e642060008201527f7374616b656420616d6f756e7400000000000000000000000000000000000000602082015250565b60006138b6602d83612427565b91506138c18261385a565b604082019050919050565b600060208201905081810360008301526138e5816138a9565b9050919050565b7f4f6e6c792070726f6a656374206d616e616765722063616e207265766965772060008201527f5461736b00000000000000000000000000000000000000000000000000000000602082015250565b6000613948602483612427565b9150613953826138ec565b604082019050919050565b600060208201905081810360008301526139778161393b565b9050919050565b7f5461736b206973206e6f7420636f6d706c657465642079657400000000000000600082015250565b60006139b4601983612427565b91506139bf8261397e565b602082019050919050565b600060208201905081810360008301526139e3816139a7565b905091905056fea2646970667358221220ac4b9f7a2daf8ce1610d2088a3a2705fbea131af1e2ba48fc77b486437cca2d864736f6c63430008110033",
  "linkReferences": {},
  "deployedLinkReferences": {}
}