{
  "_format": "hh-sol-artifact-1",
  "contractName": "JobPortal",
  "sourceName": "contracts/JobPortal.sol",
  "abi": [
    {
      "anonymous": false,
      "inputs": [
        {
          "indexed": false,
          "internalType": "uint256",
          "name": "projectId",
          "type": "uint256"
        },
        {
          "indexed": false,
          "internalType": "address",
          "name": "projectManager",
          "type": "address"
        },
        {
          "indexed": false,
          "internalType": "string",
          "name": "projectURI",
          "type": "string"
        }
      ],
      "name": "NewProject",
      "type": "event"
    },
    {
      "anonymous": false,
      "inputs": [
        {
          "indexed": false,
          "internalType": "uint256",
          "name": "projectId",
          "type": "uint256"
        },
        {
          "indexed": false,
          "internalType": "uint256",
          "name": "taskId",
          "type": "uint256"
        },
        {
          "indexed": false,
          "internalType": "address",
          "name": "freelancer",
          "type": "address"
        },
        {
          "indexed": false,
          "internalType": "uint256",
          "name": "bidAmount",
          "type": "uint256"
        },
        {
          "indexed": false,
          "internalType": "string",
          "name": "proposalURI",
          "type": "string"
        }
      ],
      "name": "NewProposal",
      "type": "event"
    },
    {
      "anonymous": false,
      "inputs": [
        {
          "indexed": false,
          "internalType": "uint256",
          "name": "projectId",
          "type": "uint256"
        },
        {
          "indexed": false,
          "internalType": "uint256",
          "name": "taskId",
          "type": "uint256"
        },
        {
          "indexed": false,
          "internalType": "uint256",
          "name": "stakedAmount",
          "type": "uint256"
        },
        {
          "indexed": false,
          "internalType": "string",
          "name": "taskURI",
          "type": "string"
        }
      ],
      "name": "NewTask",
      "type": "event"
    },
    {
      "anonymous": false,
      "inputs": [
        {
          "indexed": false,
          "internalType": "uint256",
          "name": "projectId",
          "type": "uint256"
        },
        {
          "indexed": false,
          "internalType": "uint256",
          "name": "taskId",
          "type": "uint256"
        },
        {
          "indexed": false,
          "internalType": "address",
          "name": "worker",
          "type": "address"
        },
        {
          "indexed": false,
          "internalType": "uint256",
          "name": "amount",
          "type": "uint256"
        }
      ],
      "name": "PaymentReleased",
      "type": "event"
    },
    {
      "anonymous": false,
      "inputs": [
        {
          "indexed": false,
          "internalType": "uint256",
          "name": "projectId",
          "type": "uint256"
        },
        {
          "indexed": false,
          "internalType": "uint256",
          "name": "taskId",
          "type": "uint256"
        }
      ],
      "name": "ReviewCompleted",
      "type": "event"
    },
    {
      "anonymous": false,
      "inputs": [
        {
          "indexed": false,
          "internalType": "uint256",
          "name": "projectId",
          "type": "uint256"
        },
        {
          "indexed": false,
          "internalType": "uint256",
          "name": "taskId",
          "type": "uint256"
        }
      ],
      "name": "TaskCompleted",
      "type": "event"
    },
    {
      "anonymous": false,
      "inputs": [
        {
          "indexed": false,
          "internalType": "uint256",
          "name": "projectId",
          "type": "uint256"
        },
        {
          "indexed": false,
          "internalType": "uint256",
          "name": "taskId",
          "type": "uint256"
        },
        {
          "indexed": false,
          "internalType": "address",
          "name": "worker",
          "type": "address"
        }
      ],
      "name": "WorkerSelected",
      "type": "event"
    },
    {
      "inputs": [
        {
          "internalType": "uint256",
          "name": "projectId",
          "type": "uint256"
        },
        {
          "internalType": "uint256",
          "name": "taskId",
          "type": "uint256"
        }
      ],
      "name": "completeTaskWorker",
      "outputs": [],
      "stateMutability": "nonpayable",
      "type": "function"
    },
    {
      "inputs": [
        {
          "internalType": "string",
          "name": "projectURI",
          "type": "string"
        }
      ],
      "name": "createProject",
      "outputs": [],
      "stateMutability": "nonpayable",
      "type": "function"
    },
    {
      "inputs": [
        {
          "internalType": "uint256",
          "name": "projectId",
          "type": "uint256"
        },
        {
          "internalType": "uint256",
          "name": "stakedAmount",
          "type": "uint256"
        },
        {
          "internalType": "string",
          "name": "taskURI",
          "type": "string"
        }
      ],
      "name": "createTask",
      "outputs": [],
      "stateMutability": "payable",
      "type": "function"
    },
    {
      "inputs": [],
      "name": "getBalance",
      "outputs": [
        {
          "internalType": "uint256",
          "name": "",
          "type": "uint256"
        }
      ],
      "stateMutability": "view",
      "type": "function"
    },
    {
      "inputs": [],
      "name": "getCurrentProjectId",
      "outputs": [
        {
          "internalType": "uint256",
          "name": "",
          "type": "uint256"
        }
      ],
      "stateMutability": "view",
      "type": "function"
    },
    {
      "inputs": [
        {
          "internalType": "uint256",
          "name": "projectId",
          "type": "uint256"
        },
        {
          "internalType": "uint256",
          "name": "taskId",
          "type": "uint256"
        }
      ],
      "name": "getProposalsByTaskId",
      "outputs": [
        {
          "components": [
            {
              "internalType": "string",
              "name": "proposalURI",
              "type": "string"
            },
            {
              "internalType": "address",
              "name": "freelancer",
              "type": "address"
            },
            {
              "internalType": "uint256",
              "name": "bidAmount",
              "type": "uint256"
            },
            {
              "internalType": "string",
              "name": "motivation",
              "type": "string"
            }
          ],
          "internalType": "struct JobPortal.Proposal[]",
          "name": "",
          "type": "tuple[]"
        }
      ],
      "stateMutability": "view",
      "type": "function"
    },
    {
      "inputs": [
        {
          "internalType": "uint256",
          "name": "projectId",
          "type": "uint256"
        }
      ],
      "name": "getTaskCountByProjectId",
      "outputs": [
        {
          "internalType": "uint256",
          "name": "",
          "type": "uint256"
        }
      ],
      "stateMutability": "view",
      "type": "function"
    },
    {
      "inputs": [
        {
          "internalType": "uint256",
          "name": "projectId",
          "type": "uint256"
        },
        {
          "internalType": "uint256",
          "name": "taskId",
          "type": "uint256"
        }
      ],
      "name": "getTaskData",
      "outputs": [
        {
          "internalType": "string",
          "name": "taskURI",
          "type": "string"
        },
        {
          "internalType": "uint256",
          "name": "Id",
          "type": "uint256"
        },
        {
          "internalType": "uint256",
          "name": "stakedAmount",
          "type": "uint256"
        },
        {
          "internalType": "uint256",
          "name": "proposalCount",
          "type": "uint256"
        },
        {
          "internalType": "address",
          "name": "worker",
          "type": "address"
        },
        {
          "internalType": "bool",
          "name": "isComplete",
          "type": "bool"
        },
        {
          "internalType": "bool",
          "name": "isReviewed",
          "type": "bool"
        }
      ],
      "stateMutability": "view",
      "type": "function"
    },
    {
      "inputs": [],
      "name": "projectCount",
      "outputs": [
        {
          "internalType": "uint256",
          "name": "",
          "type": "uint256"
        }
      ],
      "stateMutability": "view",
      "type": "function"
    },
    {
      "inputs": [
        {
          "internalType": "uint256",
          "name": "",
          "type": "uint256"
        }
      ],
      "name": "projects",
      "outputs": [
        {
          "internalType": "string",
          "name": "projectURI",
          "type": "string"
        },
        {
          "internalType": "uint256",
          "name": "projectId",
          "type": "uint256"
        },
        {
          "internalType": "address",
          "name": "projectManager",
          "type": "address"
        },
        {
          "internalType": "uint256",
          "name": "taskCount",
          "type": "uint256"
        }
      ],
      "stateMutability": "view",
      "type": "function"
    },
    {
      "inputs": [
        {
          "internalType": "uint256",
          "name": "projectId",
          "type": "uint256"
        },
        {
          "internalType": "uint256",
          "name": "taskId",
          "type": "uint256"
        }
      ],
      "name": "releasePayment",
      "outputs": [],
      "stateMutability": "payable",
      "type": "function"
    },
    {
      "inputs": [
        {
          "internalType": "uint256",
          "name": "projectId",
          "type": "uint256"
        },
        {
          "internalType": "uint256",
          "name": "taskId",
          "type": "uint256"
        }
      ],
      "name": "reviewTask",
      "outputs": [],
      "stateMutability": "nonpayable",
      "type": "function"
    },
    {
      "inputs": [
        {
          "internalType": "uint256",
          "name": "projectId",
          "type": "uint256"
        },
        {
          "internalType": "uint256",
          "name": "taskId",
          "type": "uint256"
        },
        {
          "internalType": "address",
          "name": "worker",
          "type": "address"
        }
      ],
      "name": "selectWorker",
      "outputs": [],
      "stateMutability": "nonpayable",
      "type": "function"
    },
    {
      "inputs": [
        {
          "internalType": "uint256",
          "name": "projectId",
          "type": "uint256"
        },
        {
          "internalType": "uint256",
          "name": "taskId",
          "type": "uint256"
        },
        {
          "internalType": "uint256",
          "name": "bidAmount",
          "type": "uint256"
        },
        {
          "internalType": "string",
          "name": "motivation",
          "type": "string"
        },
        {
          "internalType": "string",
          "name": "proposalURI",
          "type": "string"
        }
      ],
      "name": "sendProposal",
      "outputs": [],
      "stateMutability": "nonpayable",
      "type": "function"
    },
    {
      "stateMutability": "payable",
      "type": "receive"
    }
  ],
  "bytecode": "0x608060405234801561001057600080fd5b50612951806100206000396000f3fe6080604052600436106100e15760003560e01c806382b350171161007f578063ce42fc0811610059578063ce42fc08146102b8578063ce6b4660146102e1578063e2d7baac1461030a578063f7e5c81e14610347576100e8565b806382b350171461025557806397e99a8014610271578063c868ba9a1461028d576100e8565b80632463efca116100bb5780632463efca1461018157806336fbad26146101be578063446e707d146101e95780636708c24014610212576100e8565b8063107046bd146100ed57806312065fe01461012d57806315ee4df114610158576100e8565b366100e857005b600080fd5b3480156100f957600080fd5b50610114600480360381019061010f9190611676565b610370565b6040516101249493929190611783565b60405180910390f35b34801561013957600080fd5b50610142610448565b60405161014f91906117cf565b60405180910390f35b34801561016457600080fd5b5061017f600480360381019061017a919061184f565b610450565b005b34801561018d57600080fd5b506101a860048036038101906101a39190611676565b61056e565b6040516101b591906117cf565b60405180910390f35b3480156101ca57600080fd5b506101d361058d565b6040516101e091906117cf565b60405180910390f35b3480156101f557600080fd5b50610210600480360381019061020b91906119cc565b610593565b005b34801561021e57600080fd5b5061023960048036038101906102349190611a82565b61085e565b60405161024c9796959493929190611add565b60405180910390f35b61026f600480360381019061026a9190611b53565b610996565b005b61028b60048036038101906102869190611a82565b610d11565b005b34801561029957600080fd5b506102a2610f30565b6040516102af91906117cf565b60405180910390f35b3480156102c457600080fd5b506102df60048036038101906102da9190611a82565b610f45565b005b3480156102ed57600080fd5b5061030860048036038101906103039190611bf3565b61107b565b005b34801561031657600080fd5b50610331600480360381019061032c9190611a82565b61119a565b60405161033e9190611dda565b60405180910390f35b34801561035357600080fd5b5061036e60048036038101906103699190611a82565b611456565b005b600060205280600052604060002060009150905080600001805461039390611e2b565b80601f01602080910402602001604051908101604052809291908181526020018280546103bf90611e2b565b801561040c5780601f106103e15761010080835404028352916020019161040c565b820191906000526020600020905b8154815290600101906020018083116103ef57829003601f168201915b5050505050908060010154908060020160009054906101000a900473ffffffffffffffffffffffffffffffffffffffff16908060040154905084565b600047905090565b818160008060015481526020019081526020016000206000019182610476929190612013565b5060015460008060015481526020019081526020016000206001018190555033600080600154815260200190815260200160002060020160006101000a81548173ffffffffffffffffffffffffffffffffffffffff021916908373ffffffffffffffffffffffffffffffffffffffff16021790555060008060006001548152602001908152602001600020600401819055506001600081548092919061051b90612112565b91905055507fa974b2210ac17a1d9eb51946f0b5c8d97439a13bcb145bb58d3329f7d6da7e876001805461054f919061215a565b33848460405161056294939291906121bb565b60405180910390a15050565b6000806000838152602001908152602001600020600401549050919050565b60015481565b600080600088815260200190815260200160002060030160008781526020019081526020016000206005015490506000806000898152602001908152602001600020600301600088815260200190815260200160002060040160009054906101000a900473ffffffffffffffffffffffffffffffffffffffff169050600073ffffffffffffffffffffffffffffffffffffffff168173ffffffffffffffffffffffffffffffffffffffff161461067e576040517f08c379a00000000000000000000000000000000000000000000000000000000081526004016106759061226d565b60405180910390fd5b83836000808b815260200190815260200160002060030160008a8152602001908152602001600020600301600085815260200190815260200160002060000191826106ca929190612013565b50336000808a81526020019081526020016000206003016000898152602001908152602001600020600301600084815260200190815260200160002060010160006101000a81548173ffffffffffffffffffffffffffffffffffffffff021916908373ffffffffffffffffffffffffffffffffffffffff160217905550856000808a81526020019081526020016000206003016000898152602001908152602001600020600301600084815260200190815260200160002060020181905550846000808a81526020019081526020016000206003016000898152602001908152602001600020600301600084815260200190815260200160002060030190816107d3919061228d565b506000808981526020019081526020016000206003016000888152602001908152602001600020600501600081548092919061080e90612112565b91905055507fda8e8a297b528369f68e2eb3ddff4213030c5d6e4af89b322a137129e7769bd088883389888860405161084c9695949392919061235f565b60405180910390a15050505050505050565b606060008060008060008060008060008b815260200190815260200160002060030160008a81526020019081526020016000209050806000018160010154826002015483600501548460040160009054906101000a900473ffffffffffffffffffffffffffffffffffffffff168560060160009054906101000a900460ff168660060160019054906101000a900460ff168680546108fb90611e2b565b80601f016020809104026020016040519081016040528092919081815260200182805461092790611e2b565b80156109745780601f1061094957610100808354040283529160200191610974565b820191906000526020600020905b81548152906001019060200180831161095757829003601f168201915b5050505050965097509750975097509750975097505092959891949750929550565b60008085815260200190815260200160002060020160009054906101000a900473ffffffffffffffffffffffffffffffffffffffff1673ffffffffffffffffffffffffffffffffffffffff163373ffffffffffffffffffffffffffffffffffffffff1614610a39576040517f08c379a0000000000000000000000000000000000000000000000000000000008152600401610a309061242d565b60405180910390fd5b818160008087815260200190815260200160002060030160008060008981526020019081526020016000206004015481526020019081526020016000206000019182610a86929190612013565b5060008085815260200190815260200160002060040154600080868152602001908152602001600020600301600080600088815260200190815260200160002060040154815260200190815260200160002060010181905550826000808681526020019081526020016000206003016000806000888152602001908152602001600020600401548152602001908152602001600020600201819055506000806000868152602001908152602001600020600301600080600088815260200190815260200160002060040154815260200190815260200160002060060160006101000a81548160ff0219169083151502179055506000806000868152602001908152602001600020600301600080600088815260200190815260200160002060040154815260200190815260200160002060060160016101000a81548160ff0219169083151502179055506000808581526020019081526020016000206004016000815480929190610bf690612112565b91905055506000803073ffffffffffffffffffffffffffffffffffffffff1634604051610c229061247e565b60006040518083038185875af1925050503d8060008114610c5f576040519150601f19603f3d011682016040523d82523d6000602084013e610c64565b606091505b509150915081610ca9576040517f08c379a0000000000000000000000000000000000000000000000000000000008152600401610ca0906124df565b60405180910390fd5b7f6ad35e82867f5346b4cd8cbbe887194073ed7847826f00f643f312e0263aec2a8660016000808a815260200190815260200160002060040154610ced919061215a565b878787604051610d019594939291906124ff565b60405180910390a1505050505050565b60008083815260200190815260200160002060020160009054906101000a900473ffffffffffffffffffffffffffffffffffffffff1673ffffffffffffffffffffffffffffffffffffffff163373ffffffffffffffffffffffffffffffffffffffff1614610db4576040517f08c379a0000000000000000000000000000000000000000000000000000000008152600401610dab906125bf565b60405180910390fd5b600080838152602001908152602001600020600301600082815260200190815260200160002060060160019054906101000a900460ff16610e2a576040517f08c379a0000000000000000000000000000000000000000000000000000000008152600401610e219061262b565b60405180910390fd5b600080600084815260200190815260200160002060030160008381526020019081526020016000206002015490506000806000858152602001908152602001600020600301600084815260200190815260200160002060040160009054906101000a900473ffffffffffffffffffffffffffffffffffffffff1690508073ffffffffffffffffffffffffffffffffffffffff166108fc839081150290604051600060405180830381858888f19350505050158015610eec573d6000803e3d6000fd5b507f9ba01c1cf20940d4ad9b32173c4bd46bf426aae91b6cb420123d2aa5e2b76c6f84848385604051610f22949392919061264b565b60405180910390a150505050565b600060018054610f40919061215a565b905090565b600080838152602001908152602001600020600301600082815260200190815260200160002060040160009054906101000a900473ffffffffffffffffffffffffffffffffffffffff1673ffffffffffffffffffffffffffffffffffffffff163373ffffffffffffffffffffffffffffffffffffffff1614610ffc576040517f08c379a0000000000000000000000000000000000000000000000000000000008152600401610ff390612702565b60405180910390fd5b6001600080848152602001908152602001600020600301600083815260200190815260200160002060060160006101000a81548160ff0219169083151502179055507ff9c405f91e34dcd1dc136cf6992ada4a8c24a2803e0fab7546364c64dac7ba2b828260405161106f929190612722565b60405180910390a15050565b600080848152602001908152602001600020600301600083815260200190815260200160002060060160009054906101000a900460ff16156110f2576040517f08c379a00000000000000000000000000000000000000000000000000000000081526004016110e990612797565b60405180910390fd5b80600080858152602001908152602001600020600301600084815260200190815260200160002060040160006101000a81548173ffffffffffffffffffffffffffffffffffffffff021916908373ffffffffffffffffffffffffffffffffffffffff1602179055507f8f309f47dbd966575d821f13a401f294d3436f03096a9db4ccb5ac77d299260783838360405161118d939291906127b7565b60405180910390a1505050565b6060600080600085815260200190815260200160002060030160008481526020019081526020016000206005015467ffffffffffffffff8111156111e1576111e06118a1565b5b60405190808252806020026020018201604052801561121a57816020015b6112076115ee565b8152602001906001900390816111ff5790505b50905060005b60008086815260200190815260200160002060030160008581526020019081526020016000206005015481101561144b57600080868152602001908152602001600020600301600085815260200190815260200160002060030160008281526020019081526020016000206040518060800160405290816000820180546112a690611e2b565b80601f01602080910402602001604051908101604052809291908181526020018280546112d290611e2b565b801561131f5780601f106112f45761010080835404028352916020019161131f565b820191906000526020600020905b81548152906001019060200180831161130257829003601f168201915b505050505081526020016001820160009054906101000a900473ffffffffffffffffffffffffffffffffffffffff1673ffffffffffffffffffffffffffffffffffffffff1673ffffffffffffffffffffffffffffffffffffffff1681526020016002820154815260200160038201805461139890611e2b565b80601f01602080910402602001604051908101604052809291908181526020018280546113c490611e2b565b80156114115780601f106113e657610100808354040283529160200191611411565b820191906000526020600020905b8154815290600101906020018083116113f457829003601f168201915b50505050508152505082828151811061142d5761142c6127ee565b5b6020026020010181905250808061144390612112565b915050611220565b508091505092915050565b60008083815260200190815260200160002060020160009054906101000a900473ffffffffffffffffffffffffffffffffffffffff1673ffffffffffffffffffffffffffffffffffffffff163373ffffffffffffffffffffffffffffffffffffffff16146114f9576040517f08c379a00000000000000000000000000000000000000000000000000000000081526004016114f09061288f565b60405180910390fd5b600080838152602001908152602001600020600301600082815260200190815260200160002060060160009054906101000a900460ff1661156f576040517f08c379a0000000000000000000000000000000000000000000000000000000008152600401611566906128fb565b60405180910390fd5b6001600080848152602001908152602001600020600301600083815260200190815260200160002060060160016101000a81548160ff0219169083151502179055507fb389ae8814638c1b4372b4841418ca0262f4e9b76e3b4a73234cf197392288e682826040516115e2929190612722565b60405180910390a15050565b604051806080016040528060608152602001600073ffffffffffffffffffffffffffffffffffffffff16815260200160008152602001606081525090565b6000604051905090565b600080fd5b600080fd5b6000819050919050565b61165381611640565b811461165e57600080fd5b50565b6000813590506116708161164a565b92915050565b60006020828403121561168c5761168b611636565b5b600061169a84828501611661565b91505092915050565b600081519050919050565b600082825260208201905092915050565b60005b838110156116dd5780820151818401526020810190506116c2565b60008484015250505050565b6000601f19601f8301169050919050565b6000611705826116a3565b61170f81856116ae565b935061171f8185602086016116bf565b611728816116e9565b840191505092915050565b61173c81611640565b82525050565b600073ffffffffffffffffffffffffffffffffffffffff82169050919050565b600061176d82611742565b9050919050565b61177d81611762565b82525050565b6000608082019050818103600083015261179d81876116fa565b90506117ac6020830186611733565b6117b96040830185611774565b6117c66060830184611733565b95945050505050565b60006020820190506117e46000830184611733565b92915050565b600080fd5b600080fd5b600080fd5b60008083601f84011261180f5761180e6117ea565b5b8235905067ffffffffffffffff81111561182c5761182b6117ef565b5b602083019150836001820283011115611848576118476117f4565b5b9250929050565b6000806020838503121561186657611865611636565b5b600083013567ffffffffffffffff8111156118845761188361163b565b5b611890858286016117f9565b92509250509250929050565b600080fd5b7f4e487b7100000000000000000000000000000000000000000000000000000000600052604160045260246000fd5b6118d9826116e9565b810181811067ffffffffffffffff821117156118f8576118f76118a1565b5b80604052505050565b600061190b61162c565b905061191782826118d0565b919050565b600067ffffffffffffffff821115611937576119366118a1565b5b611940826116e9565b9050602081019050919050565b82818337600083830152505050565b600061196f61196a8461191c565b611901565b90508281526020810184848401111561198b5761198a61189c565b5b61199684828561194d565b509392505050565b600082601f8301126119b3576119b26117ea565b5b81356119c384826020860161195c565b91505092915050565b60008060008060008060a087890312156119e9576119e8611636565b5b60006119f789828a01611661565b9650506020611a0889828a01611661565b9550506040611a1989828a01611661565b945050606087013567ffffffffffffffff811115611a3a57611a3961163b565b5b611a4689828a0161199e565b935050608087013567ffffffffffffffff811115611a6757611a6661163b565b5b611a7389828a016117f9565b92509250509295509295509295565b60008060408385031215611a9957611a98611636565b5b6000611aa785828601611661565b9250506020611ab885828601611661565b9150509250929050565b60008115159050919050565b611ad781611ac2565b82525050565b600060e0820190508181036000830152611af7818a6116fa565b9050611b066020830189611733565b611b136040830188611733565b611b206060830187611733565b611b2d6080830186611774565b611b3a60a0830185611ace565b611b4760c0830184611ace565b98975050505050505050565b60008060008060608587031215611b6d57611b6c611636565b5b6000611b7b87828801611661565b9450506020611b8c87828801611661565b935050604085013567ffffffffffffffff811115611bad57611bac61163b565b5b611bb9878288016117f9565b925092505092959194509250565b611bd081611762565b8114611bdb57600080fd5b50565b600081359050611bed81611bc7565b92915050565b600080600060608486031215611c0c57611c0b611636565b5b6000611c1a86828701611661565b9350506020611c2b86828701611661565b9250506040611c3c86828701611bde565b9150509250925092565b600081519050919050565b600082825260208201905092915050565b6000819050602082019050919050565b600082825260208201905092915050565b6000611c8e826116a3565b611c988185611c72565b9350611ca88185602086016116bf565b611cb1816116e9565b840191505092915050565b611cc581611762565b82525050565b611cd481611640565b82525050565b60006080830160008301518482036000860152611cf78282611c83565b9150506020830151611d0c6020860182611cbc565b506040830151611d1f6040860182611ccb565b5060608301518482036060860152611d378282611c83565b9150508091505092915050565b6000611d508383611cda565b905092915050565b6000602082019050919050565b6000611d7082611c46565b611d7a8185611c51565b935083602082028501611d8c85611c62565b8060005b85811015611dc85784840389528151611da98582611d44565b9450611db483611d58565b925060208a01995050600181019050611d90565b50829750879550505050505092915050565b60006020820190508181036000830152611df48184611d65565b905092915050565b7f4e487b7100000000000000000000000000000000000000000000000000000000600052602260045260246000fd5b60006002820490506001821680611e4357607f821691505b602082108103611e5657611e55611dfc565b5b50919050565b600082905092915050565b60008190508160005260206000209050919050565b60006020601f8301049050919050565b600082821b905092915050565b600060088302611ec97fffffffffffffffffffffffffffffffffffffffffffffffffffffffffffffffff82611e8c565b611ed38683611e8c565b95508019841693508086168417925050509392505050565b6000819050919050565b6000611f10611f0b611f0684611640565b611eeb565b611640565b9050919050565b6000819050919050565b611f2a83611ef5565b611f3e611f3682611f17565b848454611e99565b825550505050565b600090565b611f53611f46565b611f5e818484611f21565b505050565b5b81811015611f8257611f77600082611f4b565b600181019050611f64565b5050565b601f821115611fc757611f9881611e67565b611fa184611e7c565b81016020851015611fb0578190505b611fc4611fbc85611e7c565b830182611f63565b50505b505050565b600082821c905092915050565b6000611fea60001984600802611fcc565b1980831691505092915050565b60006120038383611fd9565b9150826002028217905092915050565b61201d8383611e5c565b67ffffffffffffffff811115612036576120356118a1565b5b6120408254611e2b565b61204b828285611f86565b6000601f83116001811461207a5760008415612068578287013590505b6120728582611ff7565b8655506120da565b601f19841661208886611e67565b60005b828110156120b05784890135825560018201915060208501945060208101905061208b565b868310156120cd57848901356120c9601f891682611fd9565b8355505b6001600288020188555050505b50505050505050565b7f4e487b7100000000000000000000000000000000000000000000000000000000600052601160045260246000fd5b600061211d82611640565b91507fffffffffffffffffffffffffffffffffffffffffffffffffffffffffffffffff820361214f5761214e6120e3565b5b600182019050919050565b600061216582611640565b915061217083611640565b9250828203905081811115612188576121876120e3565b5b92915050565b600061219a83856116ae565b93506121a783858461194d565b6121b0836116e9565b840190509392505050565b60006060820190506121d06000830187611733565b6121dd6020830186611774565b81810360408301526121f081848661218e565b905095945050505050565b7f467265656c616e6365722068617320616c7265616479206265656e2073656c6560008201527f6374656420666f722074686973207461736b0000000000000000000000000000602082015250565b60006122576032836116ae565b9150612262826121fb565b604082019050919050565b600060208201905081810360008301526122868161224a565b9050919050565b612296826116a3565b67ffffffffffffffff8111156122af576122ae6118a1565b5b6122b98254611e2b565b6122c4828285611f86565b600060209050601f8311600181146122f757600084156122e5578287015190505b6122ef8582611ff7565b865550612357565b601f19841661230586611e67565b60005b8281101561232d57848901518255600182019150602085019450602081019050612308565b8683101561234a5784890151612346601f891682611fd9565b8355505b6001600288020188555050505b505050505050565b600060a0820190506123746000830189611733565b6123816020830188611733565b61238e6040830187611774565b61239b6060830186611733565b81810360808301526123ae81848661218e565b9050979650505050505050565b7f4f6e6c792070726f6a656374206d616e616765722063616e206372656174652060008201527f7461736b73000000000000000000000000000000000000000000000000000000602082015250565b60006124176025836116ae565b9150612422826123bb565b604082019050919050565b600060208201905081810360008301526124468161240a565b9050919050565b600081905092915050565b50565b600061246860008361244d565b915061247382612458565b600082019050919050565b60006124898261245b565b9150819050919050565b7f4e6f742073656e74000000000000000000000000000000000000000000000000600082015250565b60006124c96008836116ae565b91506124d482612493565b602082019050919050565b600060208201905081810360008301526124f8816124bc565b9050919050565b60006080820190506125146000830188611733565b6125216020830187611733565b61252e6040830186611733565b818103606083015261254181848661218e565b90509695505050505050565b7f4f6e6c792070726f6a656374206d616e616765722063616e2072656c6561736560008201527f207061796d656e74000000000000000000000000000000000000000000000000602082015250565b60006125a96028836116ae565b91506125b48261254d565b604082019050919050565b600060208201905081810360008301526125d88161259c565b9050919050565b7f5461736b206973206e6f74207265766965776564207965740000000000000000600082015250565b60006126156018836116ae565b9150612620826125df565b602082019050919050565b6000602082019050818103600083015261264481612608565b9050919050565b60006080820190506126606000830187611733565b61266d6020830186611733565b61267a6040830185611774565b6126876060830184611733565b95945050505050565b7f4f6e6c792073656c656374656420776f726b65722063616e20636f6d706c657460008201527f6520746865207461736b00000000000000000000000000000000000000000000602082015250565b60006126ec602a836116ae565b91506126f782612690565b604082019050919050565b6000602082019050818103600083015261271b816126df565b9050919050565b60006040820190506127376000830185611733565b6127446020830184611733565b9392505050565b7f5461736b20697320616c726561647920636f6d706c6574656400000000000000600082015250565b60006127816019836116ae565b915061278c8261274b565b602082019050919050565b600060208201905081810360008301526127b081612774565b9050919050565b60006060820190506127cc6000830186611733565b6127d96020830185611733565b6127e66040830184611774565b949350505050565b7f4e487b7100000000000000000000000000000000000000000000000000000000600052603260045260246000fd5b7f4f6e6c792070726f6a656374206d616e616765722063616e207265766965772060008201527f5461736b00000000000000000000000000000000000000000000000000000000602082015250565b60006128796024836116ae565b91506128848261281d565b604082019050919050565b600060208201905081810360008301526128a88161286c565b9050919050565b7f5461736b206973206e6f7420636f6d706c657465642079657400000000000000600082015250565b60006128e56019836116ae565b91506128f0826128af565b602082019050919050565b60006020820190508181036000830152612914816128d8565b905091905056fea264697066735822122074347125acbab38384d5927877e57c7eeb80f7f0c72088837eedce9ed0af026064736f6c63430008110033",
  "linkReferences": {},
  "deployedLinkReferences": {}
}