{
  "_format": "hh-sol-artifact-1",
  "contractName": "JobPortal",
  "sourceName": "contracts/JobPortal.sol",
  "abi": [
    {
      "anonymous": false,
      "inputs": [
        {
          "indexed": false,
          "internalType": "uint256",
          "name": "projectId",
          "type": "uint256"
        },
        {
          "indexed": false,
          "internalType": "address",
          "name": "projectManager",
          "type": "address"
        },
        {
          "indexed": false,
          "internalType": "string",
          "name": "projectURI",
          "type": "string"
        }
      ],
      "name": "NewProject",
      "type": "event"
    },
    {
      "anonymous": false,
      "inputs": [
        {
          "indexed": false,
          "internalType": "uint256",
          "name": "projectId",
          "type": "uint256"
        },
        {
          "indexed": false,
          "internalType": "uint256",
          "name": "taskId",
          "type": "uint256"
        },
        {
          "indexed": false,
          "internalType": "address",
          "name": "freelancer",
          "type": "address"
        },
        {
          "indexed": false,
          "internalType": "uint256",
          "name": "bidAmount",
          "type": "uint256"
        },
        {
          "indexed": false,
          "internalType": "string",
          "name": "proposalURI",
          "type": "string"
        },
        {
          "indexed": false,
          "internalType": "bool",
          "name": "isWaiting",
          "type": "bool"
        },
        {
          "indexed": false,
          "internalType": "bool",
          "name": "isAccepted",
          "type": "bool"
        }
      ],
      "name": "NewProposal",
      "type": "event"
    },
    {
      "anonymous": false,
      "inputs": [
        {
          "indexed": false,
          "internalType": "uint256",
          "name": "projectId",
          "type": "uint256"
        },
        {
          "indexed": false,
          "internalType": "uint256",
          "name": "taskId",
          "type": "uint256"
        },
        {
          "indexed": false,
          "internalType": "uint256",
          "name": "stakedAmount",
          "type": "uint256"
        },
        {
          "indexed": false,
          "internalType": "string",
          "name": "taskURI",
          "type": "string"
        }
      ],
      "name": "NewTask",
      "type": "event"
    },
    {
      "anonymous": false,
      "inputs": [
        {
          "indexed": false,
          "internalType": "uint256",
          "name": "projectId",
          "type": "uint256"
        },
        {
          "indexed": false,
          "internalType": "uint256",
          "name": "taskId",
          "type": "uint256"
        },
        {
          "indexed": false,
          "internalType": "address",
          "name": "worker",
          "type": "address"
        },
        {
          "indexed": false,
          "internalType": "uint256",
          "name": "amount",
          "type": "uint256"
        }
      ],
      "name": "PaymentReleased",
      "type": "event"
    },
    {
      "anonymous": false,
      "inputs": [
        {
          "indexed": false,
          "internalType": "uint256",
          "name": "projectId",
          "type": "uint256"
        },
        {
          "indexed": false,
          "internalType": "uint256",
          "name": "taskId",
          "type": "uint256"
        }
      ],
      "name": "ReviewCompleted",
      "type": "event"
    },
    {
      "anonymous": false,
      "inputs": [
        {
          "indexed": false,
          "internalType": "uint256",
          "name": "projectId",
          "type": "uint256"
        },
        {
          "indexed": false,
          "internalType": "uint256",
          "name": "taskId",
          "type": "uint256"
        }
      ],
      "name": "TaskCompleted",
      "type": "event"
    },
    {
      "anonymous": false,
      "inputs": [
        {
          "indexed": false,
          "internalType": "uint256",
          "name": "projectId",
          "type": "uint256"
        },
        {
          "indexed": false,
          "internalType": "uint256",
          "name": "taskId",
          "type": "uint256"
        },
        {
          "indexed": false,
          "internalType": "address",
          "name": "worker",
          "type": "address"
        }
      ],
      "name": "WorkerSelected",
      "type": "event"
    },
    {
      "inputs": [
        {
          "internalType": "string",
          "name": "personURI",
          "type": "string"
        },
        {
          "internalType": "string",
          "name": "name",
          "type": "string"
        },
        {
          "internalType": "string",
          "name": "wallet_address",
          "type": "string"
        },
        {
          "internalType": "string",
          "name": "description",
          "type": "string"
        }
      ],
      "name": "addPerson",
      "outputs": [],
      "stateMutability": "nonpayable",
      "type": "function"
    },
    {
      "inputs": [
        {
          "internalType": "uint256",
          "name": "projectId",
          "type": "uint256"
        },
        {
          "internalType": "uint256",
          "name": "taskId",
          "type": "uint256"
        }
      ],
      "name": "completeTaskWorker",
      "outputs": [],
      "stateMutability": "nonpayable",
      "type": "function"
    },
    {
      "inputs": [
        {
          "internalType": "string",
          "name": "projectURI",
          "type": "string"
        }
      ],
      "name": "createProject",
      "outputs": [],
      "stateMutability": "nonpayable",
      "type": "function"
    },
    {
      "inputs": [
        {
          "internalType": "uint256",
          "name": "projectId",
          "type": "uint256"
        },
        {
          "internalType": "uint256",
          "name": "stakedAmount",
          "type": "uint256"
        },
        {
          "internalType": "string",
          "name": "taskURI",
          "type": "string"
        }
      ],
      "name": "createTask",
      "outputs": [],
      "stateMutability": "payable",
      "type": "function"
    },
    {
      "inputs": [],
      "name": "getBalance",
      "outputs": [
        {
          "internalType": "uint256",
          "name": "",
          "type": "uint256"
        }
      ],
      "stateMutability": "view",
      "type": "function"
    },
    {
      "inputs": [],
      "name": "getCurrentProjectId",
      "outputs": [
        {
          "internalType": "uint256",
          "name": "",
          "type": "uint256"
        }
      ],
      "stateMutability": "view",
      "type": "function"
    },
    {
      "inputs": [
        {
          "internalType": "uint256",
          "name": "projectId",
          "type": "uint256"
        },
        {
          "internalType": "uint256",
          "name": "taskId",
          "type": "uint256"
        }
      ],
      "name": "getProposalsByTaskId",
      "outputs": [
        {
          "components": [
            {
              "internalType": "bool",
              "name": "isWaiting",
              "type": "bool"
            },
            {
              "internalType": "bool",
              "name": "isAccepted",
              "type": "bool"
            },
            {
              "internalType": "string",
              "name": "proposalURI",
              "type": "string"
            },
            {
              "internalType": "address",
              "name": "freelancer",
              "type": "address"
            },
            {
              "internalType": "uint256",
              "name": "bidAmount",
              "type": "uint256"
            },
            {
              "internalType": "string",
              "name": "motivation",
              "type": "string"
            }
          ],
          "internalType": "struct JobPortal.Proposal[]",
          "name": "",
          "type": "tuple[]"
        }
      ],
      "stateMutability": "view",
      "type": "function"
    },
    {
      "inputs": [
        {
          "internalType": "uint256",
          "name": "projectId",
          "type": "uint256"
        },
        {
          "internalType": "uint256",
          "name": "taskId",
          "type": "uint256"
        }
      ],
      "name": "getStakedAmount",
      "outputs": [
        {
          "internalType": "uint256",
          "name": "",
          "type": "uint256"
        }
      ],
      "stateMutability": "view",
      "type": "function"
    },
    {
      "inputs": [
        {
          "internalType": "uint256",
          "name": "projectId",
          "type": "uint256"
        }
      ],
      "name": "getTaskCountByProjectId",
      "outputs": [
        {
          "internalType": "uint256",
          "name": "",
          "type": "uint256"
        }
      ],
      "stateMutability": "view",
      "type": "function"
    },
    {
      "inputs": [
        {
          "internalType": "uint256",
          "name": "projectId",
          "type": "uint256"
        },
        {
          "internalType": "uint256",
          "name": "taskId",
          "type": "uint256"
        }
      ],
      "name": "getTaskData",
      "outputs": [
        {
          "internalType": "string",
          "name": "taskURI",
          "type": "string"
        },
        {
          "internalType": "uint256",
          "name": "Id",
          "type": "uint256"
        },
        {
          "internalType": "uint256",
          "name": "stakedAmount",
          "type": "uint256"
        },
        {
          "internalType": "uint256",
          "name": "proposalCount",
          "type": "uint256"
        },
        {
          "internalType": "address",
          "name": "worker",
          "type": "address"
        },
        {
          "internalType": "bool",
          "name": "isComplete",
          "type": "bool"
        },
        {
          "internalType": "bool",
          "name": "isReviewed",
          "type": "bool"
        },
        {
          "internalType": "bool",
          "name": "onGoing",
          "type": "bool"
        }
      ],
      "stateMutability": "view",
      "type": "function"
    },
    {
      "inputs": [
        {
          "internalType": "uint256",
          "name": "projectId",
          "type": "uint256"
        },
        {
          "internalType": "uint256",
          "name": "taskId",
          "type": "uint256"
        }
      ],
      "name": "increaseStakedAmount",
      "outputs": [],
      "stateMutability": "payable",
      "type": "function"
    },
    {
      "inputs": [
        {
          "internalType": "address",
          "name": "",
          "type": "address"
        }
      ],
      "name": "person",
      "outputs": [
        {
          "internalType": "string",
          "name": "personURI",
          "type": "string"
        },
        {
          "internalType": "string",
          "name": "name",
          "type": "string"
        },
        {
          "internalType": "string",
          "name": "wallet_address",
          "type": "string"
        },
        {
          "internalType": "string",
          "name": "description",
          "type": "string"
        },
        {
          "internalType": "uint256",
          "name": "rating",
          "type": "uint256"
        },
        {
          "internalType": "uint256",
          "name": "total_projects",
          "type": "uint256"
        },
        {
          "internalType": "uint256",
          "name": "total_tasks",
          "type": "uint256"
        }
      ],
      "stateMutability": "view",
      "type": "function"
    },
    {
      "inputs": [],
      "name": "projectCount",
      "outputs": [
        {
          "internalType": "uint256",
          "name": "",
          "type": "uint256"
        }
      ],
      "stateMutability": "view",
      "type": "function"
    },
    {
      "inputs": [
        {
          "internalType": "uint256",
          "name": "",
          "type": "uint256"
        }
      ],
      "name": "projects",
      "outputs": [
        {
          "internalType": "string",
          "name": "projectURI",
          "type": "string"
        },
        {
          "internalType": "uint256",
          "name": "projectId",
          "type": "uint256"
        },
        {
          "internalType": "address",
          "name": "projectManager",
          "type": "address"
        },
        {
          "internalType": "uint256",
          "name": "taskCount",
          "type": "uint256"
        }
      ],
      "stateMutability": "view",
      "type": "function"
    },
    {
      "inputs": [
        {
          "internalType": "uint256",
          "name": "projectId",
          "type": "uint256"
        },
        {
          "internalType": "uint256",
          "name": "taskId",
          "type": "uint256"
        }
      ],
      "name": "refundStakedAmount",
      "outputs": [],
      "stateMutability": "payable",
      "type": "function"
    },
    {
      "inputs": [
        {
          "internalType": "uint256",
          "name": "projectId",
          "type": "uint256"
        },
        {
          "internalType": "uint256",
          "name": "taskId",
          "type": "uint256"
        }
      ],
      "name": "releasePayment",
      "outputs": [],
      "stateMutability": "payable",
      "type": "function"
    },
    {
      "inputs": [
        {
          "internalType": "uint256",
          "name": "projectId",
          "type": "uint256"
        },
        {
          "internalType": "uint256",
          "name": "taskId",
          "type": "uint256"
        }
      ],
      "name": "reviewTask",
      "outputs": [],
      "stateMutability": "nonpayable",
      "type": "function"
    },
    {
      "inputs": [
        {
          "internalType": "uint256",
          "name": "projectId",
          "type": "uint256"
        },
        {
          "internalType": "uint256",
          "name": "taskId",
          "type": "uint256"
        },
        {
          "internalType": "address",
          "name": "worker",
          "type": "address"
        }
      ],
      "name": "selectWorker",
      "outputs": [],
      "stateMutability": "nonpayable",
      "type": "function"
    },
    {
      "inputs": [
        {
          "internalType": "uint256",
          "name": "projectId",
          "type": "uint256"
        },
        {
          "internalType": "uint256",
          "name": "taskId",
          "type": "uint256"
        },
        {
          "internalType": "uint256",
          "name": "bidAmount",
          "type": "uint256"
        },
        {
          "internalType": "string",
          "name": "motivation",
          "type": "string"
        },
        {
          "internalType": "string",
          "name": "proposalURI",
          "type": "string"
        }
      ],
      "name": "sendProposal",
      "outputs": [],
      "stateMutability": "nonpayable",
      "type": "function"
    },
    {
      "stateMutability": "payable",
      "type": "receive"
    }
  ],
  "bytecode": "0x608060405234801561001057600080fd5b50613c45806100206000396000f3fe6080604052600436106101185760003560e01c806392adc438116100a0578063ce6b466011610064578063ce6b4660146103a1578063e2d7baac146103ca578063e76239d814610407578063f6e847db14610423578063f7e5c81e146104605761011f565b806392adc438146102d257806397e99a80146102ee578063b7e4b2651461030a578063c868ba9a1461034d578063ce42fc08146103785761011f565b806336fbad26116100e757806336fbad26146101f5578063446e707d1461022057806360a8940e146102495780636708c2401461027257806382b35017146102b65761011f565b8063107046bd1461012457806312065fe01461016457806315ee4df11461018f5780632463efca146101b85761011f565b3661011f57005b600080fd5b34801561013057600080fd5b5061014b60048036038101906101469190612623565b610489565b60405161015b9493929190612730565b60405180910390f35b34801561017057600080fd5b50610179610561565b604051610186919061277c565b60405180910390f35b34801561019b57600080fd5b506101b660048036038101906101b191906127fc565b610569565b005b3480156101c457600080fd5b506101df60048036038101906101da9190612623565b610687565b6040516101ec919061277c565b60405180910390f35b34801561020157600080fd5b5061020a6106a6565b604051610217919061277c565b60405180910390f35b34801561022c57600080fd5b5061024760048036038101906102429190612979565b6106ac565b005b34801561025557600080fd5b50610270600480360381019061026b9190612a2f565b610a29565b005b34801561027e57600080fd5b5061029960048036038101906102949190612b06565b610c47565b6040516102ad989796959493929190612b61565b60405180910390f35b6102d060048036038101906102cb9190612be6565b610d95565b005b6102ec60048036038101906102e79190612b06565b611110565b005b61030860048036038101906103039190612b06565b61131e565b005b34801561031657600080fd5b50610331600480360381019061032c9190612c86565b6115c6565b6040516103449796959493929190612cb3565b60405180910390f35b34801561035957600080fd5b50610362611828565b60405161036f919061277c565b60405180910390f35b34801561038457600080fd5b5061039f600480360381019061039a9190612b06565b61183d565b005b3480156103ad57600080fd5b506103c860048036038101906103c39190612d3e565b611b3a565b005b3480156103d657600080fd5b506103f160048036038101906103ec9190612b06565b611e7b565b6040516103fe9190612f5a565b60405180910390f35b610421600480360381019061041c9190612b06565b61216d565b005b34801561042f57600080fd5b5061044a60048036038101906104459190612b06565b61237b565b604051610457919061277c565b60405180910390f35b34801561046c57600080fd5b5061048760048036038101906104829190612b06565b6123af565b005b60006020528060005260406000206000915090508060000180546104ac90612fab565b80601f01602080910402602001604051908101604052809291908181526020018280546104d890612fab565b80156105255780601f106104fa57610100808354040283529160200191610525565b820191906000526020600020905b81548152906001019060200180831161050857829003601f168201915b5050505050908060010154908060020160009054906101000a900473ffffffffffffffffffffffffffffffffffffffff16908060040154905084565b600047905090565b81816000806001548152602001908152602001600020600001918261058f929190613193565b5060015460008060015481526020019081526020016000206001018190555033600080600154815260200190815260200160002060020160006101000a81548173ffffffffffffffffffffffffffffffffffffffff021916908373ffffffffffffffffffffffffffffffffffffffff16021790555060008060006001548152602001908152602001600020600401819055506001600081548092919061063490613292565b91905055507fa974b2210ac17a1d9eb51946f0b5c8d97439a13bcb145bb58d3329f7d6da7e876001805461066891906132da565b33848460405161067b949392919061333b565b60405180910390a15050565b6000806000838152602001908152602001600020600401549050919050565b60015481565b600080600088815260200190815260200160002060030160008781526020019081526020016000206005015490506000806000898152602001908152602001600020600301600088815260200190815260200160002060040160009054906101000a900473ffffffffffffffffffffffffffffffffffffffff169050600073ffffffffffffffffffffffffffffffffffffffff168173ffffffffffffffffffffffffffffffffffffffff1614610797576040517f08c379a000000000000000000000000000000000000000000000000000000000815260040161078e906133ed565b60405180910390fd5b83836000808b815260200190815260200160002060030160008a8152602001908152602001600020600301600085815260200190815260200160002060010191826107e3929190613193565b50336000808a81526020019081526020016000206003016000898152602001908152602001600020600301600084815260200190815260200160002060020160006101000a81548173ffffffffffffffffffffffffffffffffffffffff021916908373ffffffffffffffffffffffffffffffffffffffff160217905550856000808a81526020019081526020016000206003016000898152602001908152602001600020600301600084815260200190815260200160002060030181905550846000808a81526020019081526020016000206003016000898152602001908152602001600020600301600084815260200190815260200160002060040190816108ec919061340d565b5060016000808a81526020019081526020016000206003016000898152602001908152602001600020600301600084815260200190815260200160002060000160006101000a81548160ff02191690831515021790555060008060008a81526020019081526020016000206003016000898152602001908152602001600020600301600084815260200190815260200160002060000160016101000a81548160ff021916908315150217905550600080898152602001908152602001600020600301600088815260200190815260200160002060050160008154809291906109d390613292565b91905055507f5ce62d9613d22c9053cb894390a01c5dc38b34449121b09f3dd961ccb473806b88883389888860016000604051610a179897969594939291906134df565b60405180910390a15050505050505050565b83600260003373ffffffffffffffffffffffffffffffffffffffff1673ffffffffffffffffffffffffffffffffffffffff1681526020019081526020016000206000019081610a78919061340d565b5082600260003373ffffffffffffffffffffffffffffffffffffffff1673ffffffffffffffffffffffffffffffffffffffff1681526020019081526020016000206001019081610ac8919061340d565b5081600260003373ffffffffffffffffffffffffffffffffffffffff1673ffffffffffffffffffffffffffffffffffffffff1681526020019081526020016000206002019081610b18919061340d565b5080600260003373ffffffffffffffffffffffffffffffffffffffff1673ffffffffffffffffffffffffffffffffffffffff1681526020019081526020016000206003019081610b68919061340d565b506000600260003373ffffffffffffffffffffffffffffffffffffffff1673ffffffffffffffffffffffffffffffffffffffff168152602001908152602001600020600401819055506000600260003373ffffffffffffffffffffffffffffffffffffffff1673ffffffffffffffffffffffffffffffffffffffff168152602001908152602001600020600501819055506000600260003373ffffffffffffffffffffffffffffffffffffffff1673ffffffffffffffffffffffffffffffffffffffff1681526020019081526020016000206006018190555050505050565b60606000806000806000806000806000808c815260200190815260200160002060030160008b81526020019081526020016000209050806000018160010154826002015483600501548460040160009054906101000a900473ffffffffffffffffffffffffffffffffffffffff168560060160009054906101000a900460ff168660060160019054906101000a900460ff168760060160029054906101000a900460ff16878054610cf790612fab565b80601f0160208091040260200160405190810160405280929190818152602001828054610d2390612fab565b8015610d705780601f10610d4557610100808354040283529160200191610d70565b820191906000526020600020905b815481529060010190602001808311610d5357829003601f168201915b5050505050975098509850985098509850985098509850509295985092959890939650565b60008085815260200190815260200160002060020160009054906101000a900473ffffffffffffffffffffffffffffffffffffffff1673ffffffffffffffffffffffffffffffffffffffff163373ffffffffffffffffffffffffffffffffffffffff1614610e38576040517f08c379a0000000000000000000000000000000000000000000000000000000008152600401610e2f906135c9565b60405180910390fd5b818160008087815260200190815260200160002060030160008060008981526020019081526020016000206004015481526020019081526020016000206000019182610e85929190613193565b5060008085815260200190815260200160002060040154600080868152602001908152602001600020600301600080600088815260200190815260200160002060040154815260200190815260200160002060010181905550826000808681526020019081526020016000206003016000806000888152602001908152602001600020600401548152602001908152602001600020600201819055506000806000868152602001908152602001600020600301600080600088815260200190815260200160002060040154815260200190815260200160002060060160006101000a81548160ff0219169083151502179055506000806000868152602001908152602001600020600301600080600088815260200190815260200160002060040154815260200190815260200160002060060160016101000a81548160ff0219169083151502179055506000808581526020019081526020016000206004016000815480929190610ff590613292565b91905055506000803073ffffffffffffffffffffffffffffffffffffffff16346040516110219061361a565b60006040518083038185875af1925050503d806000811461105e576040519150601f19603f3d011682016040523d82523d6000602084013e611063565b606091505b5091509150816110a8576040517f08c379a000000000000000000000000000000000000000000000000000000000815260040161109f9061367b565b60405180910390fd5b7f6ad35e82867f5346b4cd8cbbe887194073ed7847826f00f643f312e0263aec2a8660016000808a8152602001908152602001600020600401546110ec91906132da565b87878760405161110095949392919061369b565b60405180910390a1505050505050565b60008083815260200190815260200160002060020160009054906101000a900473ffffffffffffffffffffffffffffffffffffffff1673ffffffffffffffffffffffffffffffffffffffff163373ffffffffffffffffffffffffffffffffffffffff16146111b3576040517f08c379a00000000000000000000000000000000000000000000000000000000081526004016111aa9061375b565b60405180910390fd5b600080838152602001908152602001600020600301600082815260200190815260200160002060060160009054906101000a900460ff161561122a576040517f08c379a0000000000000000000000000000000000000000000000000000000008152600401611221906137c7565b60405180910390fd5b346000808481526020019081526020016000206003016000838152602001908152602001600020600201600082825461126391906137e7565b925050819055506000803073ffffffffffffffffffffffffffffffffffffffff16346040516112919061361a565b60006040518083038185875af1925050503d80600081146112ce576040519150601f19603f3d011682016040523d82523d6000602084013e6112d3565b606091505b509150915081611318576040517f08c379a000000000000000000000000000000000000000000000000000000000815260040161130f9061367b565b60405180910390fd5b50505050565b60008083815260200190815260200160002060020160009054906101000a900473ffffffffffffffffffffffffffffffffffffffff1673ffffffffffffffffffffffffffffffffffffffff163373ffffffffffffffffffffffffffffffffffffffff16146113c1576040517f08c379a00000000000000000000000000000000000000000000000000000000081526004016113b89061388d565b60405180910390fd5b600080838152602001908152602001600020600301600082815260200190815260200160002060060160019054906101000a900460ff16611437576040517f08c379a000000000000000000000000000000000000000000000000000000000815260040161142e906138f9565b60405180910390fd5b600080600084815260200190815260200160002060030160008381526020019081526020016000206002015490506000806000858152602001908152602001600020600301600084815260200190815260200160002060040160009054906101000a900473ffffffffffffffffffffffffffffffffffffffff1690508073ffffffffffffffffffffffffffffffffffffffff166108fc839081150290604051600060405180830381858888f193505050501580156114f9573d6000803e3d6000fd5b5060008060008681526020019081526020016000206003016000858152602001908152602001600020600201819055506001600260008373ffffffffffffffffffffffffffffffffffffffff1673ffffffffffffffffffffffffffffffffffffffff168152602001908152602001600020600401600082825461157c91906137e7565b925050819055507f9ba01c1cf20940d4ad9b32173c4bd46bf426aae91b6cb420123d2aa5e2b76c6f848483856040516115b89493929190613919565b60405180910390a150505050565b60026020528060005260406000206000915090508060000180546115e990612fab565b80601f016020809104026020016040519081016040528092919081815260200182805461161590612fab565b80156116625780601f1061163757610100808354040283529160200191611662565b820191906000526020600020905b81548152906001019060200180831161164557829003601f168201915b50505050509080600101805461167790612fab565b80601f01602080910402602001604051908101604052809291908181526020018280546116a390612fab565b80156116f05780601f106116c5576101008083540402835291602001916116f0565b820191906000526020600020905b8154815290600101906020018083116116d357829003601f168201915b50505050509080600201805461170590612fab565b80601f016020809104026020016040519081016040528092919081815260200182805461173190612fab565b801561177e5780601f106117535761010080835404028352916020019161177e565b820191906000526020600020905b81548152906001019060200180831161176157829003601f168201915b50505050509080600301805461179390612fab565b80601f01602080910402602001604051908101604052809291908181526020018280546117bf90612fab565b801561180c5780601f106117e15761010080835404028352916020019161180c565b820191906000526020600020905b8154815290600101906020018083116117ef57829003601f168201915b5050505050908060040154908060050154908060060154905087565b60006001805461183891906132da565b905090565b600080838152602001908152602001600020600301600082815260200190815260200160002060040160009054906101000a900473ffffffffffffffffffffffffffffffffffffffff1673ffffffffffffffffffffffffffffffffffffffff163373ffffffffffffffffffffffffffffffffffffffff16146118f4576040517f08c379a00000000000000000000000000000000000000000000000000000000081526004016118eb906139d0565b60405180910390fd5b6000806000848152602001908152602001600020600301600083815260200190815260200160002060060160026101000a81548160ff0219169083151502179055506001600080848152602001908152602001600020600301600083815260200190815260200160002060060160006101000a81548160ff02191690831515021790555060005b600080848152602001908152602001600020600301600083815260200190815260200160002060050154811015611afc573373ffffffffffffffffffffffffffffffffffffffff166000808581526020019081526020016000206003016000848152602001908152602001600020600301600083815260200190815260200160002060020160009054906101000a900473ffffffffffffffffffffffffffffffffffffffff1673ffffffffffffffffffffffffffffffffffffffff1603611ae95760008060008581526020019081526020016000206003016000848152602001908152602001600020600301600083815260200190815260200160002060000160006101000a81548160ff02191690831515021790555060008060008581526020019081526020016000206003016000848152602001908152602001600020600301600083815260200190815260200160002060000160016101000a81548160ff0219169083151502179055505b8080611af490613292565b91505061197b565b507ff9c405f91e34dcd1dc136cf6992ada4a8c24a2803e0fab7546364c64dac7ba2b8282604051611b2e9291906139f0565b60405180910390a15050565b600080848152602001908152602001600020600301600083815260200190815260200160002060060160009054906101000a900460ff1615611bb1576040517f08c379a0000000000000000000000000000000000000000000000000000000008152600401611ba8906137c7565b60405180910390fd5b80600080858152602001908152602001600020600301600084815260200190815260200160002060040160006101000a81548173ffffffffffffffffffffffffffffffffffffffff021916908373ffffffffffffffffffffffffffffffffffffffff16021790555060005b600080858152602001908152602001600020600301600084815260200190815260200160002060050154811015611e3a578173ffffffffffffffffffffffffffffffffffffffff166000808681526020019081526020016000206003016000858152602001908152602001600020600301600083815260200190815260200160002060020160009054906101000a900473ffffffffffffffffffffffffffffffffffffffff1673ffffffffffffffffffffffffffffffffffffffff1603611dd05760008060008681526020019081526020016000206003016000858152602001908152602001600020600301600083815260200190815260200160002060000160006101000a81548160ff02191690831515021790555060016000808681526020019081526020016000206003016000858152602001908152602001600020600301600083815260200190815260200160002060000160016101000a81548160ff0219169083151502179055506001600080868152602001908152602001600020600301600085815260200190815260200160002060060160026101000a81548160ff021916908315150217905550611e27565b60008060008681526020019081526020016000206003016000858152602001908152602001600020600301600083815260200190815260200160002060000160016101000a81548160ff0219169083151502179055505b8080611e3290613292565b915050611c1c565b507f8f309f47dbd966575d821f13a401f294d3436f03096a9db4ccb5ac77d2992607838383604051611e6e93929190613a19565b60405180910390a1505050565b6060600080600085815260200190815260200160002060030160008481526020019081526020016000206005015467ffffffffffffffff811115611ec257611ec161284e565b5b604051908082528060200260200182016040528015611efb57816020015b611ee8612589565b815260200190600190039081611ee05790505b50905060005b60008086815260200190815260200160002060030160008581526020019081526020016000206005015481101561216257600080868152602001908152602001600020600301600085815260200190815260200160002060030160008281526020019081526020016000206040518060c00160405290816000820160009054906101000a900460ff161515151581526020016000820160019054906101000a900460ff16151515158152602001600182018054611fbd90612fab565b80601f0160208091040260200160405190810160405280929190818152602001828054611fe990612fab565b80156120365780601f1061200b57610100808354040283529160200191612036565b820191906000526020600020905b81548152906001019060200180831161201957829003601f168201915b505050505081526020016002820160009054906101000a900473ffffffffffffffffffffffffffffffffffffffff1673ffffffffffffffffffffffffffffffffffffffff1673ffffffffffffffffffffffffffffffffffffffff168152602001600382015481526020016004820180546120af90612fab565b80601f01602080910402602001604051908101604052809291908181526020018280546120db90612fab565b80156121285780601f106120fd57610100808354040283529160200191612128565b820191906000526020600020905b81548152906001019060200180831161210b57829003601f168201915b50505050508152505082828151811061214457612143613a50565b5b6020026020010181905250808061215a90613292565b915050611f01565b508091505092915050565b60008083815260200190815260200160002060020160009054906101000a900473ffffffffffffffffffffffffffffffffffffffff1673ffffffffffffffffffffffffffffffffffffffff163373ffffffffffffffffffffffffffffffffffffffff1614612210576040517f08c379a000000000000000000000000000000000000000000000000000000000815260040161220790613af1565b60405180910390fd5b600080838152602001908152602001600020600301600082815260200190815260200160002060060160009054906101000a900460ff1615612287576040517f08c379a000000000000000000000000000000000000000000000000000000000815260040161227e906137c7565b60405180910390fd5b34600080848152602001908152602001600020600301600083815260200190815260200160002060020160008282546122c091906132da565b925050819055506000803373ffffffffffffffffffffffffffffffffffffffff16346040516122ee9061361a565b60006040518083038185875af1925050503d806000811461232b576040519150601f19603f3d011682016040523d82523d6000602084013e612330565b606091505b509150915081612375576040517f08c379a000000000000000000000000000000000000000000000000000000000815260040161236c9061367b565b60405180910390fd5b50505050565b6000806000848152602001908152602001600020600301600083815260200190815260200160002060020154905092915050565b60008083815260200190815260200160002060020160009054906101000a900473ffffffffffffffffffffffffffffffffffffffff1673ffffffffffffffffffffffffffffffffffffffff163373ffffffffffffffffffffffffffffffffffffffff1614612452576040517f08c379a000000000000000000000000000000000000000000000000000000000815260040161244990613b83565b60405180910390fd5b600080838152602001908152602001600020600301600082815260200190815260200160002060060160009054906101000a900460ff166124c8576040517f08c379a00000000000000000000000000000000000000000000000000000000081526004016124bf90613bef565b60405180910390fd5b6001600080848152602001908152602001600020600301600083815260200190815260200160002060060160016101000a81548160ff0219169083151502179055506000806000848152602001908152602001600020600301600083815260200190815260200160002060060160006101000a81548160ff0219169083151502179055507fb389ae8814638c1b4372b4841418ca0262f4e9b76e3b4a73234cf197392288e6828260405161257d9291906139f0565b60405180910390a15050565b6040518060c0016040528060001515815260200160001515815260200160608152602001600073ffffffffffffffffffffffffffffffffffffffff16815260200160008152602001606081525090565b6000604051905090565b600080fd5b600080fd5b6000819050919050565b612600816125ed565b811461260b57600080fd5b50565b60008135905061261d816125f7565b92915050565b600060208284031215612639576126386125e3565b5b60006126478482850161260e565b91505092915050565b600081519050919050565b600082825260208201905092915050565b60005b8381101561268a57808201518184015260208101905061266f565b60008484015250505050565b6000601f19601f8301169050919050565b60006126b282612650565b6126bc818561265b565b93506126cc81856020860161266c565b6126d581612696565b840191505092915050565b6126e9816125ed565b82525050565b600073ffffffffffffffffffffffffffffffffffffffff82169050919050565b600061271a826126ef565b9050919050565b61272a8161270f565b82525050565b6000608082019050818103600083015261274a81876126a7565b905061275960208301866126e0565b6127666040830185612721565b61277360608301846126e0565b95945050505050565b600060208201905061279160008301846126e0565b92915050565b600080fd5b600080fd5b600080fd5b60008083601f8401126127bc576127bb612797565b5b8235905067ffffffffffffffff8111156127d9576127d861279c565b5b6020830191508360018202830111156127f5576127f46127a1565b5b9250929050565b60008060208385031215612813576128126125e3565b5b600083013567ffffffffffffffff811115612831576128306125e8565b5b61283d858286016127a6565b92509250509250929050565b600080fd5b7f4e487b7100000000000000000000000000000000000000000000000000000000600052604160045260246000fd5b61288682612696565b810181811067ffffffffffffffff821117156128a5576128a461284e565b5b80604052505050565b60006128b86125d9565b90506128c4828261287d565b919050565b600067ffffffffffffffff8211156128e4576128e361284e565b5b6128ed82612696565b9050602081019050919050565b82818337600083830152505050565b600061291c612917846128c9565b6128ae565b90508281526020810184848401111561293857612937612849565b5b6129438482856128fa565b509392505050565b600082601f8301126129605761295f612797565b5b8135612970848260208601612909565b91505092915050565b60008060008060008060a08789031215612996576129956125e3565b5b60006129a489828a0161260e565b96505060206129b589828a0161260e565b95505060406129c689828a0161260e565b945050606087013567ffffffffffffffff8111156129e7576129e66125e8565b5b6129f389828a0161294b565b935050608087013567ffffffffffffffff811115612a1457612a136125e8565b5b612a2089828a016127a6565b92509250509295509295509295565b60008060008060808587031215612a4957612a486125e3565b5b600085013567ffffffffffffffff811115612a6757612a666125e8565b5b612a738782880161294b565b945050602085013567ffffffffffffffff811115612a9457612a936125e8565b5b612aa08782880161294b565b935050604085013567ffffffffffffffff811115612ac157612ac06125e8565b5b612acd8782880161294b565b925050606085013567ffffffffffffffff811115612aee57612aed6125e8565b5b612afa8782880161294b565b91505092959194509250565b60008060408385031215612b1d57612b1c6125e3565b5b6000612b2b8582860161260e565b9250506020612b3c8582860161260e565b9150509250929050565b60008115159050919050565b612b5b81612b46565b82525050565b6000610100820190508181036000830152612b7c818b6126a7565b9050612b8b602083018a6126e0565b612b9860408301896126e0565b612ba560608301886126e0565b612bb26080830187612721565b612bbf60a0830186612b52565b612bcc60c0830185612b52565b612bd960e0830184612b52565b9998505050505050505050565b60008060008060608587031215612c0057612bff6125e3565b5b6000612c0e8782880161260e565b9450506020612c1f8782880161260e565b935050604085013567ffffffffffffffff811115612c4057612c3f6125e8565b5b612c4c878288016127a6565b925092505092959194509250565b612c638161270f565b8114612c6e57600080fd5b50565b600081359050612c8081612c5a565b92915050565b600060208284031215612c9c57612c9b6125e3565b5b6000612caa84828501612c71565b91505092915050565b600060e0820190508181036000830152612ccd818a6126a7565b90508181036020830152612ce181896126a7565b90508181036040830152612cf581886126a7565b90508181036060830152612d0981876126a7565b9050612d1860808301866126e0565b612d2560a08301856126e0565b612d3260c08301846126e0565b98975050505050505050565b600080600060608486031215612d5757612d566125e3565b5b6000612d658682870161260e565b9350506020612d768682870161260e565b9250506040612d8786828701612c71565b9150509250925092565b600081519050919050565b600082825260208201905092915050565b6000819050602082019050919050565b612dc681612b46565b82525050565b600082825260208201905092915050565b6000612de882612650565b612df28185612dcc565b9350612e0281856020860161266c565b612e0b81612696565b840191505092915050565b612e1f8161270f565b82525050565b612e2e816125ed565b82525050565b600060c083016000830151612e4c6000860182612dbd565b506020830151612e5f6020860182612dbd565b5060408301518482036040860152612e778282612ddd565b9150506060830151612e8c6060860182612e16565b506080830151612e9f6080860182612e25565b5060a083015184820360a0860152612eb78282612ddd565b9150508091505092915050565b6000612ed08383612e34565b905092915050565b6000602082019050919050565b6000612ef082612d91565b612efa8185612d9c565b935083602082028501612f0c85612dad565b8060005b85811015612f485784840389528151612f298582612ec4565b9450612f3483612ed8565b925060208a01995050600181019050612f10565b50829750879550505050505092915050565b60006020820190508181036000830152612f748184612ee5565b905092915050565b7f4e487b7100000000000000000000000000000000000000000000000000000000600052602260045260246000fd5b60006002820490506001821680612fc357607f821691505b602082108103612fd657612fd5612f7c565b5b50919050565b600082905092915050565b60008190508160005260206000209050919050565b60006020601f8301049050919050565b600082821b905092915050565b6000600883026130497fffffffffffffffffffffffffffffffffffffffffffffffffffffffffffffffff8261300c565b613053868361300c565b95508019841693508086168417925050509392505050565b6000819050919050565b600061309061308b613086846125ed565b61306b565b6125ed565b9050919050565b6000819050919050565b6130aa83613075565b6130be6130b682613097565b848454613019565b825550505050565b600090565b6130d36130c6565b6130de8184846130a1565b505050565b5b81811015613102576130f76000826130cb565b6001810190506130e4565b5050565b601f8211156131475761311881612fe7565b61312184612ffc565b81016020851015613130578190505b61314461313c85612ffc565b8301826130e3565b50505b505050565b600082821c905092915050565b600061316a6000198460080261314c565b1980831691505092915050565b60006131838383613159565b9150826002028217905092915050565b61319d8383612fdc565b67ffffffffffffffff8111156131b6576131b561284e565b5b6131c08254612fab565b6131cb828285613106565b6000601f8311600181146131fa57600084156131e8578287013590505b6131f28582613177565b86555061325a565b601f19841661320886612fe7565b60005b828110156132305784890135825560018201915060208501945060208101905061320b565b8683101561324d5784890135613249601f891682613159565b8355505b6001600288020188555050505b50505050505050565b7f4e487b7100000000000000000000000000000000000000000000000000000000600052601160045260246000fd5b600061329d826125ed565b91507fffffffffffffffffffffffffffffffffffffffffffffffffffffffffffffffff82036132cf576132ce613263565b5b600182019050919050565b60006132e5826125ed565b91506132f0836125ed565b925082820390508181111561330857613307613263565b5b92915050565b600061331a838561265b565b93506133278385846128fa565b61333083612696565b840190509392505050565b600060608201905061335060008301876126e0565b61335d6020830186612721565b818103604083015261337081848661330e565b905095945050505050565b7f467265656c616e6365722068617320616c7265616479206265656e2073656c6560008201527f6374656420666f722074686973207461736b0000000000000000000000000000602082015250565b60006133d760328361265b565b91506133e28261337b565b604082019050919050565b60006020820190508181036000830152613406816133ca565b9050919050565b61341682612650565b67ffffffffffffffff81111561342f5761342e61284e565b5b6134398254612fab565b613444828285613106565b600060209050601f8311600181146134775760008415613465578287015190505b61346f8582613177565b8655506134d7565b601f19841661348586612fe7565b60005b828110156134ad57848901518255600182019150602085019450602081019050613488565b868310156134ca57848901516134c6601f891682613159565b8355505b6001600288020188555050505b505050505050565b600060e0820190506134f4600083018b6126e0565b613501602083018a6126e0565b61350e6040830189612721565b61351b60608301886126e0565b818103608083015261352e81868861330e565b905061353d60a0830185612b52565b61354a60c0830184612b52565b9998505050505050505050565b7f4f6e6c792070726f6a656374206d616e616765722063616e206372656174652060008201527f7461736b73000000000000000000000000000000000000000000000000000000602082015250565b60006135b360258361265b565b91506135be82613557565b604082019050919050565b600060208201905081810360008301526135e2816135a6565b9050919050565b600081905092915050565b50565b60006136046000836135e9565b915061360f826135f4565b600082019050919050565b6000613625826135f7565b9150819050919050565b7f4e6f742073656e74000000000000000000000000000000000000000000000000600082015250565b600061366560088361265b565b91506136708261362f565b602082019050919050565b6000602082019050818103600083015261369481613658565b9050919050565b60006080820190506136b060008301886126e0565b6136bd60208301876126e0565b6136ca60408301866126e0565b81810360608301526136dd81848661330e565b90509695505050505050565b7f4f6e6c792070726f6a656374206d616e616765722063616e20696e637265617360008201527f65207374616b656420616d6f756e740000000000000000000000000000000000602082015250565b6000613745602f8361265b565b9150613750826136e9565b604082019050919050565b6000602082019050818103600083015261377481613738565b9050919050565b7f5461736b20697320616c726561647920636f6d706c6574656400000000000000600082015250565b60006137b160198361265b565b91506137bc8261377b565b602082019050919050565b600060208201905081810360008301526137e0816137a4565b9050919050565b60006137f2826125ed565b91506137fd836125ed565b925082820190508082111561381557613814613263565b5b92915050565b7f4f6e6c792070726f6a656374206d616e616765722063616e2072656c6561736560008201527f207061796d656e74000000000000000000000000000000000000000000000000602082015250565b600061387760288361265b565b91506138828261381b565b604082019050919050565b600060208201905081810360008301526138a68161386a565b9050919050565b7f5461736b206973206e6f74207265766965776564207965740000000000000000600082015250565b60006138e360188361265b565b91506138ee826138ad565b602082019050919050565b60006020820190508181036000830152613912816138d6565b9050919050565b600060808201905061392e60008301876126e0565b61393b60208301866126e0565b6139486040830185612721565b61395560608301846126e0565b95945050505050565b7f4f6e6c792073656c656374656420776f726b65722063616e20636f6d706c657460008201527f6520746865207461736b00000000000000000000000000000000000000000000602082015250565b60006139ba602a8361265b565b91506139c58261395e565b604082019050919050565b600060208201905081810360008301526139e9816139ad565b9050919050565b6000604082019050613a0560008301856126e0565b613a1260208301846126e0565b9392505050565b6000606082019050613a2e60008301866126e0565b613a3b60208301856126e0565b613a486040830184612721565b949350505050565b7f4e487b7100000000000000000000000000000000000000000000000000000000600052603260045260246000fd5b7f4f6e6c792070726f6a656374206d616e616765722063616e20726566756e642060008201527f7374616b656420616d6f756e7400000000000000000000000000000000000000602082015250565b6000613adb602d8361265b565b9150613ae682613a7f565b604082019050919050565b60006020820190508181036000830152613b0a81613ace565b9050919050565b7f4f6e6c792070726f6a656374206d616e616765722063616e207265766965772060008201527f5461736b00000000000000000000000000000000000000000000000000000000602082015250565b6000613b6d60248361265b565b9150613b7882613b11565b604082019050919050565b60006020820190508181036000830152613b9c81613b60565b9050919050565b7f5461736b206973206e6f7420636f6d706c657465642079657400000000000000600082015250565b6000613bd960198361265b565b9150613be482613ba3565b602082019050919050565b60006020820190508181036000830152613c0881613bcc565b905091905056fea26469706673582212205d1bdfb767b332713e603f164da44a433fbed3e93a205c5a1a00c3a41e57bd3d64736f6c63430008110033",
  "linkReferences": {},
  "deployedLinkReferences": {}
}