{
  "_format": "hh-sol-artifact-1",
  "contractName": "JobPortal",
  "sourceName": "contracts/JobPortal.sol",
  "abi": [
    {
      "anonymous": false,
      "inputs": [
        {
          "indexed": false,
          "internalType": "uint256",
          "name": "projectId",
          "type": "uint256"
        },
        {
          "indexed": false,
          "internalType": "address",
          "name": "projectManager",
          "type": "address"
        },
        {
          "indexed": false,
          "internalType": "string",
          "name": "projectURI",
          "type": "string"
        }
      ],
      "name": "NewProject",
      "type": "event"
    },
    {
      "anonymous": false,
      "inputs": [
        {
          "indexed": false,
          "internalType": "uint256",
          "name": "projectId",
          "type": "uint256"
        },
        {
          "indexed": false,
          "internalType": "uint256",
          "name": "taskId",
          "type": "uint256"
        },
        {
          "indexed": false,
          "internalType": "address",
          "name": "freelancer",
          "type": "address"
        },
        {
          "indexed": false,
          "internalType": "uint256",
          "name": "bidAmount",
          "type": "uint256"
        },
        {
          "indexed": false,
          "internalType": "string",
          "name": "proposalURI",
          "type": "string"
        },
        {
          "indexed": false,
          "internalType": "bool",
          "name": "isWaiting",
          "type": "bool"
        },
        {
          "indexed": false,
          "internalType": "bool",
          "name": "isAccepted",
          "type": "bool"
        }
      ],
      "name": "NewProposal",
      "type": "event"
    },
    {
      "anonymous": false,
      "inputs": [
        {
          "indexed": false,
          "internalType": "uint256",
          "name": "projectId",
          "type": "uint256"
        },
        {
          "indexed": false,
          "internalType": "uint256",
          "name": "taskId",
          "type": "uint256"
        },
        {
          "indexed": false,
          "internalType": "uint256",
          "name": "stakedAmount",
          "type": "uint256"
        },
        {
          "indexed": false,
          "internalType": "string",
          "name": "taskURI",
          "type": "string"
        }
      ],
      "name": "NewTask",
      "type": "event"
    },
    {
      "anonymous": false,
      "inputs": [
        {
          "indexed": false,
          "internalType": "uint256",
          "name": "projectId",
          "type": "uint256"
        },
        {
          "indexed": false,
          "internalType": "uint256",
          "name": "taskId",
          "type": "uint256"
        },
        {
          "indexed": false,
          "internalType": "address",
          "name": "worker",
          "type": "address"
        },
        {
          "indexed": false,
          "internalType": "uint256",
          "name": "amount",
          "type": "uint256"
        }
      ],
      "name": "PaymentReleased",
      "type": "event"
    },
    {
      "anonymous": false,
      "inputs": [
        {
          "indexed": false,
          "internalType": "uint256",
          "name": "projectId",
          "type": "uint256"
        },
        {
          "indexed": false,
          "internalType": "uint256",
          "name": "taskId",
          "type": "uint256"
        }
      ],
      "name": "ReviewCompleted",
      "type": "event"
    },
    {
      "anonymous": false,
      "inputs": [
        {
          "indexed": false,
          "internalType": "uint256",
          "name": "projectId",
          "type": "uint256"
        },
        {
          "indexed": false,
          "internalType": "uint256",
          "name": "taskId",
          "type": "uint256"
        }
      ],
      "name": "TaskCompleted",
      "type": "event"
    },
    {
      "anonymous": false,
      "inputs": [
        {
          "indexed": false,
          "internalType": "uint256",
          "name": "projectId",
          "type": "uint256"
        },
        {
          "indexed": false,
          "internalType": "uint256",
          "name": "taskId",
          "type": "uint256"
        },
        {
          "indexed": false,
          "internalType": "address",
          "name": "worker",
          "type": "address"
        }
      ],
      "name": "WorkerSelected",
      "type": "event"
    },
    {
      "inputs": [
        {
          "internalType": "string",
          "name": "personURI",
          "type": "string"
        },
        {
          "internalType": "string",
          "name": "name",
          "type": "string"
        },
        {
          "internalType": "string",
          "name": "wallet_address",
          "type": "string"
        },
        {
          "internalType": "string",
          "name": "description",
          "type": "string"
        }
      ],
      "name": "addPerson",
      "outputs": [],
      "stateMutability": "nonpayable",
      "type": "function"
    },
    {
      "inputs": [
        {
          "internalType": "uint256",
          "name": "projectId",
          "type": "uint256"
        },
        {
          "internalType": "uint256",
          "name": "taskId",
          "type": "uint256"
        }
      ],
      "name": "completeTaskWorker",
      "outputs": [],
      "stateMutability": "nonpayable",
      "type": "function"
    },
    {
      "inputs": [
        {
          "internalType": "string",
          "name": "projectURI",
          "type": "string"
        }
      ],
      "name": "createProject",
      "outputs": [],
      "stateMutability": "nonpayable",
      "type": "function"
    },
    {
      "inputs": [
        {
          "internalType": "uint256",
          "name": "projectId",
          "type": "uint256"
        },
        {
          "internalType": "uint256",
          "name": "stakedAmount",
          "type": "uint256"
        },
        {
          "internalType": "string",
          "name": "taskURI",
          "type": "string"
        }
      ],
      "name": "createTask",
      "outputs": [],
      "stateMutability": "payable",
      "type": "function"
    },
    {
      "inputs": [],
      "name": "getBalance",
      "outputs": [
        {
          "internalType": "uint256",
          "name": "",
          "type": "uint256"
        }
      ],
      "stateMutability": "view",
      "type": "function"
    },
    {
      "inputs": [],
      "name": "getCurrentProjectId",
      "outputs": [
        {
          "internalType": "uint256",
          "name": "",
          "type": "uint256"
        }
      ],
      "stateMutability": "view",
      "type": "function"
    },
    {
      "inputs": [
        {
          "internalType": "uint256",
          "name": "projectId",
          "type": "uint256"
        },
        {
          "internalType": "uint256",
          "name": "taskId",
          "type": "uint256"
        }
      ],
      "name": "getProposalsByTaskId",
      "outputs": [
        {
          "components": [
            {
              "internalType": "bool",
              "name": "isWaiting",
              "type": "bool"
            },
            {
              "internalType": "bool",
              "name": "isAccepted",
              "type": "bool"
            },
            {
              "internalType": "string",
              "name": "proposalURI",
              "type": "string"
            },
            {
              "internalType": "address",
              "name": "freelancer",
              "type": "address"
            },
            {
              "internalType": "uint256",
              "name": "bidAmount",
              "type": "uint256"
            },
            {
              "internalType": "string",
              "name": "motivation",
              "type": "string"
            }
          ],
          "internalType": "struct JobPortal.Proposal[]",
          "name": "",
          "type": "tuple[]"
        }
      ],
      "stateMutability": "view",
      "type": "function"
    },
    {
      "inputs": [
        {
          "internalType": "uint256",
          "name": "projectId",
          "type": "uint256"
        },
        {
          "internalType": "uint256",
          "name": "taskId",
          "type": "uint256"
        }
      ],
      "name": "getStakedAmount",
      "outputs": [
        {
          "internalType": "uint256",
          "name": "",
          "type": "uint256"
        }
      ],
      "stateMutability": "view",
      "type": "function"
    },
    {
      "inputs": [
        {
          "internalType": "uint256",
          "name": "projectId",
          "type": "uint256"
        }
      ],
      "name": "getTaskCountByProjectId",
      "outputs": [
        {
          "internalType": "uint256",
          "name": "",
          "type": "uint256"
        }
      ],
      "stateMutability": "view",
      "type": "function"
    },
    {
      "inputs": [
        {
          "internalType": "uint256",
          "name": "projectId",
          "type": "uint256"
        },
        {
          "internalType": "uint256",
          "name": "taskId",
          "type": "uint256"
        },
        {
          "internalType": "address",
          "name": "addr",
          "type": "address"
        }
      ],
      "name": "getTaskData",
      "outputs": [
        {
          "internalType": "string",
          "name": "taskURI",
          "type": "string"
        },
        {
          "internalType": "uint256",
          "name": "Id",
          "type": "uint256"
        },
        {
          "internalType": "uint256",
          "name": "stakedAmount",
          "type": "uint256"
        },
        {
          "internalType": "uint256",
          "name": "proposalCount",
          "type": "uint256"
        },
        {
          "internalType": "address",
          "name": "worker",
          "type": "address"
        },
        {
          "internalType": "bool",
          "name": "isComplete",
          "type": "bool"
        },
        {
          "internalType": "bool",
          "name": "isReviewed",
          "type": "bool"
        },
        {
          "internalType": "bool",
          "name": "isWaiting",
          "type": "bool"
        },
        {
          "internalType": "bool",
          "name": "onGoing",
          "type": "bool"
        }
      ],
      "stateMutability": "view",
      "type": "function"
    },
    {
      "inputs": [
        {
          "internalType": "uint256",
          "name": "projectId",
          "type": "uint256"
        },
        {
          "internalType": "uint256",
          "name": "taskId",
          "type": "uint256"
        }
      ],
      "name": "increaseStakedAmount",
      "outputs": [],
      "stateMutability": "payable",
      "type": "function"
    },
    {
      "inputs": [
        {
          "internalType": "address",
          "name": "",
          "type": "address"
        }
      ],
      "name": "person",
      "outputs": [
        {
          "internalType": "string",
          "name": "personURI",
          "type": "string"
        },
        {
          "internalType": "string",
          "name": "name",
          "type": "string"
        },
        {
          "internalType": "string",
          "name": "wallet_address",
          "type": "string"
        },
        {
          "internalType": "string",
          "name": "description",
          "type": "string"
        },
        {
          "internalType": "uint256",
          "name": "rating",
          "type": "uint256"
        },
        {
          "internalType": "uint256",
          "name": "total_projects",
          "type": "uint256"
        },
        {
          "internalType": "uint256",
          "name": "total_tasks",
          "type": "uint256"
        }
      ],
      "stateMutability": "view",
      "type": "function"
    },
    {
      "inputs": [],
      "name": "projectCount",
      "outputs": [
        {
          "internalType": "uint256",
          "name": "",
          "type": "uint256"
        }
      ],
      "stateMutability": "view",
      "type": "function"
    },
    {
      "inputs": [
        {
          "internalType": "uint256",
          "name": "",
          "type": "uint256"
        }
      ],
      "name": "projects",
      "outputs": [
        {
          "internalType": "string",
          "name": "projectURI",
          "type": "string"
        },
        {
          "internalType": "uint256",
          "name": "projectId",
          "type": "uint256"
        },
        {
          "internalType": "address",
          "name": "projectManager",
          "type": "address"
        },
        {
          "internalType": "uint256",
          "name": "taskCount",
          "type": "uint256"
        }
      ],
      "stateMutability": "view",
      "type": "function"
    },
    {
      "inputs": [
        {
          "internalType": "uint256",
          "name": "projectId",
          "type": "uint256"
        },
        {
          "internalType": "uint256",
          "name": "taskId",
          "type": "uint256"
        }
      ],
      "name": "refundStakedAmount",
      "outputs": [],
      "stateMutability": "payable",
      "type": "function"
    },
    {
      "inputs": [
        {
          "internalType": "uint256",
          "name": "projectId",
          "type": "uint256"
        },
        {
          "internalType": "uint256",
          "name": "taskId",
          "type": "uint256"
        }
      ],
      "name": "releasePayment",
      "outputs": [],
      "stateMutability": "payable",
      "type": "function"
    },
    {
      "inputs": [
        {
          "internalType": "uint256",
          "name": "projectId",
          "type": "uint256"
        },
        {
          "internalType": "uint256",
          "name": "taskId",
          "type": "uint256"
        }
      ],
      "name": "reviewTask",
      "outputs": [],
      "stateMutability": "nonpayable",
      "type": "function"
    },
    {
      "inputs": [
        {
          "internalType": "uint256",
          "name": "projectId",
          "type": "uint256"
        },
        {
          "internalType": "uint256",
          "name": "taskId",
          "type": "uint256"
        },
        {
          "internalType": "address",
          "name": "worker",
          "type": "address"
        }
      ],
      "name": "selectWorker",
      "outputs": [],
      "stateMutability": "nonpayable",
      "type": "function"
    },
    {
      "inputs": [
        {
          "internalType": "uint256",
          "name": "projectId",
          "type": "uint256"
        },
        {
          "internalType": "uint256",
          "name": "taskId",
          "type": "uint256"
        },
        {
          "internalType": "uint256",
          "name": "bidAmount",
          "type": "uint256"
        },
        {
          "internalType": "string",
          "name": "motivation",
          "type": "string"
        },
        {
          "internalType": "string",
          "name": "proposalURI",
          "type": "string"
        }
      ],
      "name": "sendProposal",
      "outputs": [],
      "stateMutability": "nonpayable",
      "type": "function"
    },
    {
      "stateMutability": "payable",
      "type": "receive"
    }
  ],
  "bytecode": "0x608060405234801561001057600080fd5b50613a22806100206000396000f3fe6080604052600436106101185760003560e01c806392adc438116100a0578063ce6b466011610064578063ce6b4660146103a2578063e2d7baac146103cb578063e76239d814610408578063f6e847db14610424578063f7e5c81e146104615761011f565b806392adc438146102d357806397e99a80146102ef578063b7e4b2651461030b578063c868ba9a1461034e578063ce42fc08146103795761011f565b80632463efca116100e75780632463efca146101fd57806336fbad261461023a578063446e707d1461026557806360a8940e1461028e57806382b35017146102b75761011f565b8063107046bd1461012457806312065fe01461016457806315ee4df11461018f57806320729edf146101b85761011f565b3661011f57005b600080fd5b34801561013057600080fd5b5061014b600480360381019061014691906123f1565b61048a565b60405161015b94939291906124fe565b60405180910390f35b34801561017057600080fd5b50610179610562565b604051610186919061254a565b60405180910390f35b34801561019b57600080fd5b506101b660048036038101906101b191906125ca565b61056a565b005b3480156101c457600080fd5b506101df60048036038101906101da9190612643565b610688565b6040516101f4999897969594939291906126b1565b60405180910390f35b34801561020957600080fd5b50610224600480360381019061021f91906123f1565b6107ee565b604051610231919061254a565b60405180910390f35b34801561024657600080fd5b5061024f61080d565b60405161025c919061254a565b60405180910390f35b34801561027157600080fd5b5061028c60048036038101906102879190612875565b610813565b005b34801561029a57600080fd5b506102b560048036038101906102b0919061292b565b610b90565b005b6102d160048036038101906102cc9190612a02565b610dae565b005b6102ed60048036038101906102e89190612a76565b611129565b005b61030960048036038101906103049190612a76565b611337565b005b34801561031757600080fd5b50610332600480360381019061032d9190612ab6565b6115df565b6040516103459796959493929190612ae3565b60405180910390f35b34801561035a57600080fd5b50610363611841565b604051610370919061254a565b60405180910390f35b34801561038557600080fd5b506103a0600480360381019061039b9190612a76565b611856565b005b3480156103ae57600080fd5b506103c960048036038101906103c49190612643565b61198c565b005b3480156103d757600080fd5b506103f260048036038101906103ed9190612a76565b611c8b565b6040516103ff9190612d37565b60405180910390f35b610422600480360381019061041d9190612a76565b611f7d565b005b34801561043057600080fd5b5061044b60048036038101906104469190612a76565b61218b565b604051610458919061254a565b60405180910390f35b34801561046d57600080fd5b5061048860048036038101906104839190612a76565b6121bf565b005b60006020528060005260406000206000915090508060000180546104ad90612d88565b80601f01602080910402602001604051908101604052809291908181526020018280546104d990612d88565b80156105265780601f106104fb57610100808354040283529160200191610526565b820191906000526020600020905b81548152906001019060200180831161050957829003601f168201915b5050505050908060010154908060020160009054906101000a900473ffffffffffffffffffffffffffffffffffffffff16908060040154905084565b600047905090565b818160008060015481526020019081526020016000206000019182610590929190612f70565b5060015460008060015481526020019081526020016000206001018190555033600080600154815260200190815260200160002060020160006101000a81548173ffffffffffffffffffffffffffffffffffffffff021916908373ffffffffffffffffffffffffffffffffffffffff1602179055506000806000600154815260200190815260200160002060040181905550600160008154809291906106359061306f565b91905055507fa974b2210ac17a1d9eb51946f0b5c8d97439a13bcb145bb58d3329f7d6da7e876001805461066991906130b7565b33848460405161067c9493929190613118565b60405180910390a15050565b606060008060008060008060008060008060008e815260200190815260200160002060030160008d81526020019081526020016000209050806000018160010154826002015483600501548460040160009054906101000a900473ffffffffffffffffffffffffffffffffffffffff168560060160009054906101000a900460ff168660060160019054906101000a900460ff168760060160029054906101000a900460ff168860060160039054906101000a900460ff1688805461074c90612d88565b80601f016020809104026020016040519081016040528092919081815260200182805461077890612d88565b80156107c55780601f1061079a576101008083540402835291602001916107c5565b820191906000526020600020905b8154815290600101906020018083116107a857829003601f168201915b505050505098509950995099509950995099509950995099505093979b92969a50939750939750565b6000806000838152602001908152602001600020600401549050919050565b60015481565b600080600088815260200190815260200160002060030160008781526020019081526020016000206005015490506000806000898152602001908152602001600020600301600088815260200190815260200160002060040160009054906101000a900473ffffffffffffffffffffffffffffffffffffffff169050600073ffffffffffffffffffffffffffffffffffffffff168173ffffffffffffffffffffffffffffffffffffffff16146108fe576040517f08c379a00000000000000000000000000000000000000000000000000000000081526004016108f5906131ca565b60405180910390fd5b83836000808b815260200190815260200160002060030160008a81526020019081526020016000206003016000858152602001908152602001600020600101918261094a929190612f70565b50336000808a81526020019081526020016000206003016000898152602001908152602001600020600301600084815260200190815260200160002060020160006101000a81548173ffffffffffffffffffffffffffffffffffffffff021916908373ffffffffffffffffffffffffffffffffffffffff160217905550856000808a81526020019081526020016000206003016000898152602001908152602001600020600301600084815260200190815260200160002060030181905550846000808a8152602001908152602001600020600301600089815260200190815260200160002060030160008481526020019081526020016000206004019081610a5391906131ea565b5060016000808a81526020019081526020016000206003016000898152602001908152602001600020600301600084815260200190815260200160002060000160006101000a81548160ff02191690831515021790555060008060008a81526020019081526020016000206003016000898152602001908152602001600020600301600084815260200190815260200160002060000160016101000a81548160ff02191690831515021790555060008089815260200190815260200160002060030160008881526020019081526020016000206005016000815480929190610b3a9061306f565b91905055507f5ce62d9613d22c9053cb894390a01c5dc38b34449121b09f3dd961ccb473806b88883389888860016000604051610b7e9897969594939291906132bc565b60405180910390a15050505050505050565b83600260003373ffffffffffffffffffffffffffffffffffffffff1673ffffffffffffffffffffffffffffffffffffffff1681526020019081526020016000206000019081610bdf91906131ea565b5082600260003373ffffffffffffffffffffffffffffffffffffffff1673ffffffffffffffffffffffffffffffffffffffff1681526020019081526020016000206001019081610c2f91906131ea565b5081600260003373ffffffffffffffffffffffffffffffffffffffff1673ffffffffffffffffffffffffffffffffffffffff1681526020019081526020016000206002019081610c7f91906131ea565b5080600260003373ffffffffffffffffffffffffffffffffffffffff1673ffffffffffffffffffffffffffffffffffffffff1681526020019081526020016000206003019081610ccf91906131ea565b506000600260003373ffffffffffffffffffffffffffffffffffffffff1673ffffffffffffffffffffffffffffffffffffffff168152602001908152602001600020600401819055506000600260003373ffffffffffffffffffffffffffffffffffffffff1673ffffffffffffffffffffffffffffffffffffffff168152602001908152602001600020600501819055506000600260003373ffffffffffffffffffffffffffffffffffffffff1673ffffffffffffffffffffffffffffffffffffffff1681526020019081526020016000206006018190555050505050565b60008085815260200190815260200160002060020160009054906101000a900473ffffffffffffffffffffffffffffffffffffffff1673ffffffffffffffffffffffffffffffffffffffff163373ffffffffffffffffffffffffffffffffffffffff1614610e51576040517f08c379a0000000000000000000000000000000000000000000000000000000008152600401610e48906133a6565b60405180910390fd5b818160008087815260200190815260200160002060030160008060008981526020019081526020016000206004015481526020019081526020016000206000019182610e9e929190612f70565b5060008085815260200190815260200160002060040154600080868152602001908152602001600020600301600080600088815260200190815260200160002060040154815260200190815260200160002060010181905550826000808681526020019081526020016000206003016000806000888152602001908152602001600020600401548152602001908152602001600020600201819055506000806000868152602001908152602001600020600301600080600088815260200190815260200160002060040154815260200190815260200160002060060160006101000a81548160ff0219169083151502179055506000806000868152602001908152602001600020600301600080600088815260200190815260200160002060040154815260200190815260200160002060060160016101000a81548160ff021916908315150217905550600080858152602001908152602001600020600401600081548092919061100e9061306f565b91905055506000803073ffffffffffffffffffffffffffffffffffffffff163460405161103a906133f7565b60006040518083038185875af1925050503d8060008114611077576040519150601f19603f3d011682016040523d82523d6000602084013e61107c565b606091505b5091509150816110c1576040517f08c379a00000000000000000000000000000000000000000000000000000000081526004016110b890613458565b60405180910390fd5b7f6ad35e82867f5346b4cd8cbbe887194073ed7847826f00f643f312e0263aec2a8660016000808a81526020019081526020016000206004015461110591906130b7565b878787604051611119959493929190613478565b60405180910390a1505050505050565b60008083815260200190815260200160002060020160009054906101000a900473ffffffffffffffffffffffffffffffffffffffff1673ffffffffffffffffffffffffffffffffffffffff163373ffffffffffffffffffffffffffffffffffffffff16146111cc576040517f08c379a00000000000000000000000000000000000000000000000000000000081526004016111c390613538565b60405180910390fd5b600080838152602001908152602001600020600301600082815260200190815260200160002060060160009054906101000a900460ff1615611243576040517f08c379a000000000000000000000000000000000000000000000000000000000815260040161123a906135a4565b60405180910390fd5b346000808481526020019081526020016000206003016000838152602001908152602001600020600201600082825461127c91906135c4565b925050819055506000803073ffffffffffffffffffffffffffffffffffffffff16346040516112aa906133f7565b60006040518083038185875af1925050503d80600081146112e7576040519150601f19603f3d011682016040523d82523d6000602084013e6112ec565b606091505b509150915081611331576040517f08c379a000000000000000000000000000000000000000000000000000000000815260040161132890613458565b60405180910390fd5b50505050565b60008083815260200190815260200160002060020160009054906101000a900473ffffffffffffffffffffffffffffffffffffffff1673ffffffffffffffffffffffffffffffffffffffff163373ffffffffffffffffffffffffffffffffffffffff16146113da576040517f08c379a00000000000000000000000000000000000000000000000000000000081526004016113d19061366a565b60405180910390fd5b600080838152602001908152602001600020600301600082815260200190815260200160002060060160019054906101000a900460ff16611450576040517f08c379a0000000000000000000000000000000000000000000000000000000008152600401611447906136d6565b60405180910390fd5b600080600084815260200190815260200160002060030160008381526020019081526020016000206002015490506000806000858152602001908152602001600020600301600084815260200190815260200160002060040160009054906101000a900473ffffffffffffffffffffffffffffffffffffffff1690508073ffffffffffffffffffffffffffffffffffffffff166108fc839081150290604051600060405180830381858888f19350505050158015611512573d6000803e3d6000fd5b5060008060008681526020019081526020016000206003016000858152602001908152602001600020600201819055506001600260008373ffffffffffffffffffffffffffffffffffffffff1673ffffffffffffffffffffffffffffffffffffffff168152602001908152602001600020600401600082825461159591906135c4565b925050819055507f9ba01c1cf20940d4ad9b32173c4bd46bf426aae91b6cb420123d2aa5e2b76c6f848483856040516115d194939291906136f6565b60405180910390a150505050565b600260205280600052604060002060009150905080600001805461160290612d88565b80601f016020809104026020016040519081016040528092919081815260200182805461162e90612d88565b801561167b5780601f106116505761010080835404028352916020019161167b565b820191906000526020600020905b81548152906001019060200180831161165e57829003601f168201915b50505050509080600101805461169090612d88565b80601f01602080910402602001604051908101604052809291908181526020018280546116bc90612d88565b80156117095780601f106116de57610100808354040283529160200191611709565b820191906000526020600020905b8154815290600101906020018083116116ec57829003601f168201915b50505050509080600201805461171e90612d88565b80601f016020809104026020016040519081016040528092919081815260200182805461174a90612d88565b80156117975780601f1061176c57610100808354040283529160200191611797565b820191906000526020600020905b81548152906001019060200180831161177a57829003601f168201915b5050505050908060030180546117ac90612d88565b80601f01602080910402602001604051908101604052809291908181526020018280546117d890612d88565b80156118255780601f106117fa57610100808354040283529160200191611825565b820191906000526020600020905b81548152906001019060200180831161180857829003601f168201915b5050505050908060040154908060050154908060060154905087565b60006001805461185191906130b7565b905090565b600080838152602001908152602001600020600301600082815260200190815260200160002060040160009054906101000a900473ffffffffffffffffffffffffffffffffffffffff1673ffffffffffffffffffffffffffffffffffffffff163373ffffffffffffffffffffffffffffffffffffffff161461190d576040517f08c379a0000000000000000000000000000000000000000000000000000000008152600401611904906137ad565b60405180910390fd5b6001600080848152602001908152602001600020600301600083815260200190815260200160002060060160006101000a81548160ff0219169083151502179055507ff9c405f91e34dcd1dc136cf6992ada4a8c24a2803e0fab7546364c64dac7ba2b82826040516119809291906137cd565b60405180910390a15050565b600080848152602001908152602001600020600301600083815260200190815260200160002060060160009054906101000a900460ff1615611a03576040517f08c379a00000000000000000000000000000000000000000000000000000000081526004016119fa906135a4565b60405180910390fd5b80600080858152602001908152602001600020600301600084815260200190815260200160002060040160006101000a81548173ffffffffffffffffffffffffffffffffffffffff021916908373ffffffffffffffffffffffffffffffffffffffff16021790555060005b600080858152602001908152602001600020600301600084815260200190815260200160002060050154811015611c4a578173ffffffffffffffffffffffffffffffffffffffff166000808681526020019081526020016000206003016000858152602001908152602001600020600301600083815260200190815260200160002060020160009054906101000a900473ffffffffffffffffffffffffffffffffffffffff1673ffffffffffffffffffffffffffffffffffffffff1603611be05760008060008681526020019081526020016000206003016000858152602001908152602001600020600301600083815260200190815260200160002060000160006101000a81548160ff02191690831515021790555060016000808681526020019081526020016000206003016000858152602001908152602001600020600301600083815260200190815260200160002060000160016101000a81548160ff021916908315150217905550611c37565b60008060008681526020019081526020016000206003016000858152602001908152602001600020600301600083815260200190815260200160002060000160016101000a81548160ff0219169083151502179055505b8080611c429061306f565b915050611a6e565b507f8f309f47dbd966575d821f13a401f294d3436f03096a9db4ccb5ac77d2992607838383604051611c7e939291906137f6565b60405180910390a1505050565b6060600080600085815260200190815260200160002060030160008481526020019081526020016000206005015467ffffffffffffffff811115611cd257611cd161274a565b5b604051908082528060200260200182016040528015611d0b57816020015b611cf8612357565b815260200190600190039081611cf05790505b50905060005b600080868152602001908152602001600020600301600085815260200190815260200160002060050154811015611f7257600080868152602001908152602001600020600301600085815260200190815260200160002060030160008281526020019081526020016000206040518060c00160405290816000820160009054906101000a900460ff161515151581526020016000820160019054906101000a900460ff16151515158152602001600182018054611dcd90612d88565b80601f0160208091040260200160405190810160405280929190818152602001828054611df990612d88565b8015611e465780601f10611e1b57610100808354040283529160200191611e46565b820191906000526020600020905b815481529060010190602001808311611e2957829003601f168201915b505050505081526020016002820160009054906101000a900473ffffffffffffffffffffffffffffffffffffffff1673ffffffffffffffffffffffffffffffffffffffff1673ffffffffffffffffffffffffffffffffffffffff16815260200160038201548152602001600482018054611ebf90612d88565b80601f0160208091040260200160405190810160405280929190818152602001828054611eeb90612d88565b8015611f385780601f10611f0d57610100808354040283529160200191611f38565b820191906000526020600020905b815481529060010190602001808311611f1b57829003601f168201915b505050505081525050828281518110611f5457611f5361382d565b5b60200260200101819052508080611f6a9061306f565b915050611d11565b508091505092915050565b60008083815260200190815260200160002060020160009054906101000a900473ffffffffffffffffffffffffffffffffffffffff1673ffffffffffffffffffffffffffffffffffffffff163373ffffffffffffffffffffffffffffffffffffffff1614612020576040517f08c379a0000000000000000000000000000000000000000000000000000000008152600401612017906138ce565b60405180910390fd5b600080838152602001908152602001600020600301600082815260200190815260200160002060060160009054906101000a900460ff1615612097576040517f08c379a000000000000000000000000000000000000000000000000000000000815260040161208e906135a4565b60405180910390fd5b34600080848152602001908152602001600020600301600083815260200190815260200160002060020160008282546120d091906130b7565b925050819055506000803373ffffffffffffffffffffffffffffffffffffffff16346040516120fe906133f7565b60006040518083038185875af1925050503d806000811461213b576040519150601f19603f3d011682016040523d82523d6000602084013e612140565b606091505b509150915081612185576040517f08c379a000000000000000000000000000000000000000000000000000000000815260040161217c90613458565b60405180910390fd5b50505050565b6000806000848152602001908152602001600020600301600083815260200190815260200160002060020154905092915050565b60008083815260200190815260200160002060020160009054906101000a900473ffffffffffffffffffffffffffffffffffffffff1673ffffffffffffffffffffffffffffffffffffffff163373ffffffffffffffffffffffffffffffffffffffff1614612262576040517f08c379a000000000000000000000000000000000000000000000000000000000815260040161225990613960565b60405180910390fd5b600080838152602001908152602001600020600301600082815260200190815260200160002060060160009054906101000a900460ff166122d8576040517f08c379a00000000000000000000000000000000000000000000000000000000081526004016122cf906139cc565b60405180910390fd5b6001600080848152602001908152602001600020600301600083815260200190815260200160002060060160016101000a81548160ff0219169083151502179055507fb389ae8814638c1b4372b4841418ca0262f4e9b76e3b4a73234cf197392288e6828260405161234b9291906137cd565b60405180910390a15050565b6040518060c0016040528060001515815260200160001515815260200160608152602001600073ffffffffffffffffffffffffffffffffffffffff16815260200160008152602001606081525090565b6000604051905090565b600080fd5b600080fd5b6000819050919050565b6123ce816123bb565b81146123d957600080fd5b50565b6000813590506123eb816123c5565b92915050565b600060208284031215612407576124066123b1565b5b6000612415848285016123dc565b91505092915050565b600081519050919050565b600082825260208201905092915050565b60005b8381101561245857808201518184015260208101905061243d565b60008484015250505050565b6000601f19601f8301169050919050565b60006124808261241e565b61248a8185612429565b935061249a81856020860161243a565b6124a381612464565b840191505092915050565b6124b7816123bb565b82525050565b600073ffffffffffffffffffffffffffffffffffffffff82169050919050565b60006124e8826124bd565b9050919050565b6124f8816124dd565b82525050565b600060808201905081810360008301526125188187612475565b905061252760208301866124ae565b61253460408301856124ef565b61254160608301846124ae565b95945050505050565b600060208201905061255f60008301846124ae565b92915050565b600080fd5b600080fd5b600080fd5b60008083601f84011261258a57612589612565565b5b8235905067ffffffffffffffff8111156125a7576125a661256a565b5b6020830191508360018202830111156125c3576125c261256f565b5b9250929050565b600080602083850312156125e1576125e06123b1565b5b600083013567ffffffffffffffff8111156125ff576125fe6123b6565b5b61260b85828601612574565b92509250509250929050565b612620816124dd565b811461262b57600080fd5b50565b60008135905061263d81612617565b92915050565b60008060006060848603121561265c5761265b6123b1565b5b600061266a868287016123dc565b935050602061267b868287016123dc565b925050604061268c8682870161262e565b9150509250925092565b60008115159050919050565b6126ab81612696565b82525050565b60006101208201905081810360008301526126cc818c612475565b90506126db602083018b6124ae565b6126e8604083018a6124ae565b6126f560608301896124ae565b61270260808301886124ef565b61270f60a08301876126a2565b61271c60c08301866126a2565b61272960e08301856126a2565b6127376101008301846126a2565b9a9950505050505050505050565b600080fd5b7f4e487b7100000000000000000000000000000000000000000000000000000000600052604160045260246000fd5b61278282612464565b810181811067ffffffffffffffff821117156127a1576127a061274a565b5b80604052505050565b60006127b46123a7565b90506127c08282612779565b919050565b600067ffffffffffffffff8211156127e0576127df61274a565b5b6127e982612464565b9050602081019050919050565b82818337600083830152505050565b6000612818612813846127c5565b6127aa565b90508281526020810184848401111561283457612833612745565b5b61283f8482856127f6565b509392505050565b600082601f83011261285c5761285b612565565b5b813561286c848260208601612805565b91505092915050565b60008060008060008060a08789031215612892576128916123b1565b5b60006128a089828a016123dc565b96505060206128b189828a016123dc565b95505060406128c289828a016123dc565b945050606087013567ffffffffffffffff8111156128e3576128e26123b6565b5b6128ef89828a01612847565b935050608087013567ffffffffffffffff8111156129105761290f6123b6565b5b61291c89828a01612574565b92509250509295509295509295565b60008060008060808587031215612945576129446123b1565b5b600085013567ffffffffffffffff811115612963576129626123b6565b5b61296f87828801612847565b945050602085013567ffffffffffffffff8111156129905761298f6123b6565b5b61299c87828801612847565b935050604085013567ffffffffffffffff8111156129bd576129bc6123b6565b5b6129c987828801612847565b925050606085013567ffffffffffffffff8111156129ea576129e96123b6565b5b6129f687828801612847565b91505092959194509250565b60008060008060608587031215612a1c57612a1b6123b1565b5b6000612a2a878288016123dc565b9450506020612a3b878288016123dc565b935050604085013567ffffffffffffffff811115612a5c57612a5b6123b6565b5b612a6887828801612574565b925092505092959194509250565b60008060408385031215612a8d57612a8c6123b1565b5b6000612a9b858286016123dc565b9250506020612aac858286016123dc565b9150509250929050565b600060208284031215612acc57612acb6123b1565b5b6000612ada8482850161262e565b91505092915050565b600060e0820190508181036000830152612afd818a612475565b90508181036020830152612b118189612475565b90508181036040830152612b258188612475565b90508181036060830152612b398187612475565b9050612b4860808301866124ae565b612b5560a08301856124ae565b612b6260c08301846124ae565b98975050505050505050565b600081519050919050565b600082825260208201905092915050565b6000819050602082019050919050565b612ba381612696565b82525050565b600082825260208201905092915050565b6000612bc58261241e565b612bcf8185612ba9565b9350612bdf81856020860161243a565b612be881612464565b840191505092915050565b612bfc816124dd565b82525050565b612c0b816123bb565b82525050565b600060c083016000830151612c296000860182612b9a565b506020830151612c3c6020860182612b9a565b5060408301518482036040860152612c548282612bba565b9150506060830151612c696060860182612bf3565b506080830151612c7c6080860182612c02565b5060a083015184820360a0860152612c948282612bba565b9150508091505092915050565b6000612cad8383612c11565b905092915050565b6000602082019050919050565b6000612ccd82612b6e565b612cd78185612b79565b935083602082028501612ce985612b8a565b8060005b85811015612d255784840389528151612d068582612ca1565b9450612d1183612cb5565b925060208a01995050600181019050612ced565b50829750879550505050505092915050565b60006020820190508181036000830152612d518184612cc2565b905092915050565b7f4e487b7100000000000000000000000000000000000000000000000000000000600052602260045260246000fd5b60006002820490506001821680612da057607f821691505b602082108103612db357612db2612d59565b5b50919050565b600082905092915050565b60008190508160005260206000209050919050565b60006020601f8301049050919050565b600082821b905092915050565b600060088302612e267fffffffffffffffffffffffffffffffffffffffffffffffffffffffffffffffff82612de9565b612e308683612de9565b95508019841693508086168417925050509392505050565b6000819050919050565b6000612e6d612e68612e63846123bb565b612e48565b6123bb565b9050919050565b6000819050919050565b612e8783612e52565b612e9b612e9382612e74565b848454612df6565b825550505050565b600090565b612eb0612ea3565b612ebb818484612e7e565b505050565b5b81811015612edf57612ed4600082612ea8565b600181019050612ec1565b5050565b601f821115612f2457612ef581612dc4565b612efe84612dd9565b81016020851015612f0d578190505b612f21612f1985612dd9565b830182612ec0565b50505b505050565b600082821c905092915050565b6000612f4760001984600802612f29565b1980831691505092915050565b6000612f608383612f36565b9150826002028217905092915050565b612f7a8383612db9565b67ffffffffffffffff811115612f9357612f9261274a565b5b612f9d8254612d88565b612fa8828285612ee3565b6000601f831160018114612fd75760008415612fc5578287013590505b612fcf8582612f54565b865550613037565b601f198416612fe586612dc4565b60005b8281101561300d57848901358255600182019150602085019450602081019050612fe8565b8683101561302a5784890135613026601f891682612f36565b8355505b6001600288020188555050505b50505050505050565b7f4e487b7100000000000000000000000000000000000000000000000000000000600052601160045260246000fd5b600061307a826123bb565b91507fffffffffffffffffffffffffffffffffffffffffffffffffffffffffffffffff82036130ac576130ab613040565b5b600182019050919050565b60006130c2826123bb565b91506130cd836123bb565b92508282039050818111156130e5576130e4613040565b5b92915050565b60006130f78385612429565b93506131048385846127f6565b61310d83612464565b840190509392505050565b600060608201905061312d60008301876124ae565b61313a60208301866124ef565b818103604083015261314d8184866130eb565b905095945050505050565b7f467265656c616e6365722068617320616c7265616479206265656e2073656c6560008201527f6374656420666f722074686973207461736b0000000000000000000000000000602082015250565b60006131b4603283612429565b91506131bf82613158565b604082019050919050565b600060208201905081810360008301526131e3816131a7565b9050919050565b6131f38261241e565b67ffffffffffffffff81111561320c5761320b61274a565b5b6132168254612d88565b613221828285612ee3565b600060209050601f8311600181146132545760008415613242578287015190505b61324c8582612f54565b8655506132b4565b601f19841661326286612dc4565b60005b8281101561328a57848901518255600182019150602085019450602081019050613265565b868310156132a757848901516132a3601f891682612f36565b8355505b6001600288020188555050505b505050505050565b600060e0820190506132d1600083018b6124ae565b6132de602083018a6124ae565b6132eb60408301896124ef565b6132f860608301886124ae565b818103608083015261330b8186886130eb565b905061331a60a08301856126a2565b61332760c08301846126a2565b9998505050505050505050565b7f4f6e6c792070726f6a656374206d616e616765722063616e206372656174652060008201527f7461736b73000000000000000000000000000000000000000000000000000000602082015250565b6000613390602583612429565b915061339b82613334565b604082019050919050565b600060208201905081810360008301526133bf81613383565b9050919050565b600081905092915050565b50565b60006133e16000836133c6565b91506133ec826133d1565b600082019050919050565b6000613402826133d4565b9150819050919050565b7f4e6f742073656e74000000000000000000000000000000000000000000000000600082015250565b6000613442600883612429565b915061344d8261340c565b602082019050919050565b6000602082019050818103600083015261347181613435565b9050919050565b600060808201905061348d60008301886124ae565b61349a60208301876124ae565b6134a760408301866124ae565b81810360608301526134ba8184866130eb565b90509695505050505050565b7f4f6e6c792070726f6a656374206d616e616765722063616e20696e637265617360008201527f65207374616b656420616d6f756e740000000000000000000000000000000000602082015250565b6000613522602f83612429565b915061352d826134c6565b604082019050919050565b6000602082019050818103600083015261355181613515565b9050919050565b7f5461736b20697320616c726561647920636f6d706c6574656400000000000000600082015250565b600061358e601983612429565b915061359982613558565b602082019050919050565b600060208201905081810360008301526135bd81613581565b9050919050565b60006135cf826123bb565b91506135da836123bb565b92508282019050808211156135f2576135f1613040565b5b92915050565b7f4f6e6c792070726f6a656374206d616e616765722063616e2072656c6561736560008201527f207061796d656e74000000000000000000000000000000000000000000000000602082015250565b6000613654602883612429565b915061365f826135f8565b604082019050919050565b6000602082019050818103600083015261368381613647565b9050919050565b7f5461736b206973206e6f74207265766965776564207965740000000000000000600082015250565b60006136c0601883612429565b91506136cb8261368a565b602082019050919050565b600060208201905081810360008301526136ef816136b3565b9050919050565b600060808201905061370b60008301876124ae565b61371860208301866124ae565b61372560408301856124ef565b61373260608301846124ae565b95945050505050565b7f4f6e6c792073656c656374656420776f726b65722063616e20636f6d706c657460008201527f6520746865207461736b00000000000000000000000000000000000000000000602082015250565b6000613797602a83612429565b91506137a28261373b565b604082019050919050565b600060208201905081810360008301526137c68161378a565b9050919050565b60006040820190506137e260008301856124ae565b6137ef60208301846124ae565b9392505050565b600060608201905061380b60008301866124ae565b61381860208301856124ae565b61382560408301846124ef565b949350505050565b7f4e487b7100000000000000000000000000000000000000000000000000000000600052603260045260246000fd5b7f4f6e6c792070726f6a656374206d616e616765722063616e20726566756e642060008201527f7374616b656420616d6f756e7400000000000000000000000000000000000000602082015250565b60006138b8602d83612429565b91506138c38261385c565b604082019050919050565b600060208201905081810360008301526138e7816138ab565b9050919050565b7f4f6e6c792070726f6a656374206d616e616765722063616e207265766965772060008201527f5461736b00000000000000000000000000000000000000000000000000000000602082015250565b600061394a602483612429565b9150613955826138ee565b604082019050919050565b600060208201905081810360008301526139798161393d565b9050919050565b7f5461736b206973206e6f7420636f6d706c657465642079657400000000000000600082015250565b60006139b6601983612429565b91506139c182613980565b602082019050919050565b600060208201905081810360008301526139e5816139a9565b905091905056fea26469706673582212201f172dd7e71514f38473230471e84f964231922962505fc50e57f2e587f02f9864736f6c63430008110033",
  "linkReferences": {},
  "deployedLinkReferences": {}
}